:100000000C94E0000C9408010C9408010C94620D0F
:100010000C94620D0C94620D0C9408010C94080170
:100020000C9408010C9408010C9408010C9408012C
:100030000C9408010C9408010C9408010C9408011C
:100040000C94180D0C9408010C94E60C0C94C00C44
:100050000C9408010C9408010C9408010C940801FC
:100060000C9408010C94080100407A10F35A00A087
:10007000724E18090010A5D4E80000E87648170071
:1000800000E40B54020000CA9A3B000000E1F505B1
:10009000000080969800000040420F000000A086FB
:1000A00001000000102700000000E803000000002D
:1000B0006400000000000A000000000001000000D1
:1000C00000002C76D888DC674F0823DFC1DFAE59EB
:1000D000E1B1B796E5E3E453C63AE651997696E87E
:1000E000E6C28426EB898C9B62ED407C6FFCEFBC02
:1000F0009C9F40F2BAA56FA5F490055A2AF75C932D
:100100006B6CF9676DC11BFCE0E40D47FEF520E662
:10011000B500D0ED902E0300943577050080841E45
:10012000080000204E0A000000C80C333333330FA0
:10013000986E12831141EF8D2114893BE65516CF3D
:10014000FEE6DB18D1844B381BF77C1D901DA4BB49
:10015000E424203284725E228100C9F124ECA1E5FE
:100160003D2700000000240027002A0000000008AE
:10017000000201000003040700000000000000006E
:1001800000000000230026002900000000002500D8
:1001900028002B00040404040404040402020202E4
:1001A000020203030303030301020408102040803A
:1001B000010204081020010204081020DA0D59166B
:1001C00011241FBECFEFD8E0DEBFCDBF24E0ACE9E5
:1001D000B2E001C01D92AF33B207E1F712E0A0E038
:1001E000B1E0E0EEFBE302C005900D92AC39B1073F
:1001F000D9F710E0CFEDD0E004C02197FE010E94B6
:10020000CA1BCE3DD107C9F70E94640F0C94E31DB1
:100210000C940000E9EEF2E0A089B18982E08C93B1
:10022000A485B5851C92A685B7858FEC8C93108E1E
:10023000A489B58986E08C93A289B3898C91806169
:100240008C93A289B3898C9188608C93A289B3899D
:100250008C9180688C930288F389E02D80818F7D5A
:10026000808308950F931F93CF93DF93C09106046B
:10027000E7E0F4E0CD3211F0E6E0F4E08F0120E0B9
:1002800030E0A901D801DD918D0180ED8D0F8A301C
:1002900090F4AAE0B0E00E94141A2D2FDD0F330B6A
:1002A000440B550B260F371F481F591F2053310988
:1002B00041095109E7CFA4E6B0E00E94141AAB014E
:1002C000BC01DF01819190ED980F9A30D0F38E320E
:1002D00059F511968C91119790ED980F9A3020F561
:1002E000082E000C990BC0972AE0289F8001299FB7
:1002F000100D1124012E000C220B330B400F511F47
:10030000621F731F12968C9190ED980F9A3060F4D3
:10031000082E000C990BC097092E000CAA0BBB0BE2
:10032000480F591F6A1F7B1FCD3239F470956095B5
:10033000509541955F4F6F4F7F4FCB01BA01DF91D1
:10034000CF911F910F9108954F925F926F927F927C
:100350008F929F92AF92BF92CF92DF92EF92FF92D5
:100360001F93CF93DF93C6E0D4E0FE01C12CD12CC4
:100370007601119180ED810F8A30A8F4AAE0B0E0F7
:10038000A70196010E94141AC12E110FDD08EE0874
:10039000FF08C60ED71EE81EF91E80E3C81AD10852
:1003A000E108F108E6CFC701B60124E630E040E0FD
:1003B00050E00E94A81B9B01AC0160EA76E881E056
:1003C00090E00E94841B4B015C019E01899190ED9D
:1003D000980F9A30D0F38E3221F5E901219680E111
:1003E000482E87E2582E612C712CA99180ED8A0F3E
:1003F0008A30B8F40A2E000CBB0BD097A3019201EF
:100400000E94D01B860E971EA81EB91EC301B20102
:100410002AE030E040E050E00E94A81B29013A01A8
:10042000E4CFC701B60124E630E040E050E00E948E
:10043000A81B60E472E48FE090E00E94841B6B01D3
:100440007C01C501B4016D5F7F4F8F4F9F4F26E048
:1004500030E040E050E00E94A81BC701B601620FE7
:10046000731F841F951FDF91CF911F91FF90EF9015
:10047000DF90CF90BF90AF909F908F907F906F90C4
:100480005F904F900895DC01ED91FC910190F08117
:10049000E02D0994AF92BF92CF92DF92EF92FF923C
:1004A0000F931F93CF93DF936C017B018B01040F9C
:1004B000151FEB015E01AE18BF08C017D10759F038
:1004C0006991D601ED91FC910190F081E02DC6017A
:1004D0000995892B79F7C501DF91CF911F910F9174
:1004E000FF90EF90DF90CF90BF90AF900895FC0108
:1004F000538D448D252F30E0842F90E0821B930B89
:10050000541710F0CF96089501970895FC01918D2E
:10051000828D981761F0A28DAE0FBF2FB11D5D9631
:100520008C91928D9F5F9F73928F90E008958FEFD3
:100530009FEF0895FC01918D828D981731F0828D87
:10054000E80FF11D858D90E008958FEF9FEF0895DE
:10055000FC01918D228D892F90E0805C9F4F821B42
:1005600091098F739927089589EE92E00E94A8025D
:1005700021E0892B09F420E0822F089580E090E0AB
:10058000892B29F00E94B40281110C940000089577
:10059000FC01A48DA80FB92FB11DA35ABF4F2C91F8
:1005A000848D90E001968F739927848FA689B789EF
:1005B0002C93A089B1898C91837080648C93938DE6
:1005C000848D981306C00288F389E02D80818F7D89
:1005D00080830895EF92FF920F931F93CF93DF9341
:1005E000EC0181E0888F9B8D8C8D98131AC0E8896F
:1005F000F989808185FF15C09FB7F894EE89FF893E
:100600006083E889F98980818370806480839FBFDB
:1006100081E090E0DF91CF911F910F91FF90EF90DB
:100620000895F62E0B8D10E00F5F1F4F0F731127EB
:10063000E02E8C8D8E110CC00FB607FCFACFE88926
:10064000F989808185FFF5CFCE010E94C802F1CFE4
:10065000EB8DEC0FFD2FF11DE35AFF4FF0829FB79A
:10066000F8940B8FEA89FB8980818062CFCFCF938A
:10067000DF93EC01888D8823B9F0AA89BB89E889CA
:10068000F9898C9185FD03C0808186FD0DC00FB670
:1006900007FCF7CF8C9185FFF2CF808185FFEDCFEE
:1006A000CE010E94C802E9CFDF91CF910895833037
:1006B00081F028F4813099F08230A9F008958730D4
:1006C000A9F08830C9F08430B1F4809180008F7D2A
:1006D00003C0809180008F7780938000089584B557
:1006E0008F7784BD089584B58F7DFBCF8091B00056
:1006F0008F778093B00008958091B0008F7DF9CFFF
:10070000CF93DF93282F30E0F901E459FE4F849115
:10071000F901E855FE4FD491F901EC56FE4FC49112
:10072000CC23A1F081110E945703EC2FF0E0EE0FD3
:10073000FF1FE058FE4FA591B491EC91ED2381E0AD
:1007400090E009F480E0DF91CF91089580E090E09F
:10075000FACF1F93CF93DF93282F30E0F901E459AC
:10076000FE4F8491F901E855FE4FD491F901EC5602
:10077000FE4FC491CC23A9F0162F81110E9457037C
:10078000EC2FF0E0EE0FFF1FE657FE4FA591B4915E
:100790008FB7F894EC91111108C0D095DE23DC934B
:1007A0008FBFDF91CF911F910895DE2BF8CFCF93AC
:1007B000DF9390E0FC01E855FE4F24918C569E4F4C
:1007C000FC0184918823C9F090E0880F991FFC01F7
:1007D000EE59FE4FA591B491FC01E657FE4FC5912D
:1007E000D49161110DC09FB7F8948C91209582230C
:1007F0008C938881282328839FBFDF91CF91089510
:10080000623051F49FB7F8943C91822F80958323F6
:100810008C93E8812E2BEFCF8FB7F894EC912E2B91
:100820002C938FBFEACF3FB7F8948091E10290916B
:10083000E202A091E302B091E40226B5A89B05C0B4
:100840002F3F19F00196A11DB11D3FBFBA2FA92F4F
:10085000982F8827BC01CD01620F711D811D911D4C
:1008600042E0660F771F881F991F4A95D1F70895B8
:100870008F929F92AF92BF92CF92DF92EF92FF92B0
:100880004B015C010E9413046B017C010E94130464
:100890006C197D098E099F09683E73408105910599
:1008A000A8F321E0821A9108A108B10888EEC80EC9
:1008B00083E0D81EE11CF11C81149104A104B10451
:1008C00029F7FF90EF90DF90CF90BF90AF909F906F
:1008D0008F9008952FB7F8946091DD027091DE0239
:1008E0008091DF029091E0022FBF08954F925F92B6
:1008F0006F927F92AF92BF92CF92DF92EF92FF9270
:100900000F931F93CF93DF938C01EB015A01C0909B
:10091000C003D090C103E090C203F090C3034090A5
:10092000C8035090C9036090CA037090CB038091B4
:10093000FC039091FD03A091FE03B091FF038F3F54
:100940002FEF9207A207B20781F00E946A0420915C
:10095000FC033091FD034091FE035091FF03DC0145
:10096000CB01821B930BA40BB50BF5018083918304
:10097000A283B38360E070E08AE794E4FFEFCF16D0
:10098000F9ECDF06FAE9EF06FBE3FF0651F0C701D9
:10099000B6010E94F71820E034E244E759E40E94CF
:1009A000D21AF801608371838283938360E070E0E0
:1009B0008AE794E4FFEFCF16F9ECDF06FAE9EF06D9
:1009C000FBE3FF0651F0C301B2010E94F71820E0DB
:1009D00034E244E759E40E94D21A688379838A8317
:1009E0009B83DF91CF911F910F91FF90EF90DF904C
:1009F000CF90BF90AF907F906F905F904F90089591
:100A0000CF92DF92EF92FF920F931F93CF93DF93DA
:100A1000EC017A016901E881F9810190F081E02D12
:100A20000995E881F9810084F185E02D9801A601FE
:100A3000B701CE01DF91CF911F910F91FF90EF9001
:100A4000DF90CF9009946F927F928F929F92AF9296
:100A5000BF92CF92DF92EF92FF920F931F93CF93AB
:100A6000DF93CDB7DEB729970FB6F894DEBF0FBE80
:100A7000CDBFDC011696ED91FC91319609F480C052
:100A800059013A016B018C01FE0131964F0185E05D
:100A9000DF011D928A95E9F7D801ED91FC91048858
:100AA000F589E02DB401C80109957C01892B09F075
:100AB00051C01F821E8219861886D801ED91FC91C3
:100AC0000688F789E02D9E01285F3F4FAE014A5FFF
:100AD0005F4FB401C80109957C01892BD9F5A11498
:100AE000B10439F085E0F401D50101900D928A95A9
:100AF000E1F70E811F81C114D10479F0612F7727AE
:100B000067FD7A95072E000C880B990B0E94F71849
:100B1000F60160837183828393836114710489F089
:100B20008985682F782F770F770B072E000C880B9D
:100B3000990B0E94F718D3016D937D938D939C932D
:100B40001397012B39F488859985892B19F496E13F
:100B5000E92EF12CC70129960FB6F894DEBF0FBE1F
:100B6000CDBFDF91CF911F910F91FF90EF90DF905C
:100B7000CF90BF90AF909F908F907F906F9008958F
:100B800087E1E82EF12CE6CF8F929F92AF92BF9231
:100B9000CF92DF92EF92FF920F931F93CF93DF9349
:100BA000EC018B016A017901E881F9810288F389FE
:100BB000E02DDB016C910995B82EE881F98102885E
:100BC000F389E02DD80111966C91CE010995982EEC
:100BD000E881F9810288F389E02DD80112966C91A1
:100BE000CE010995A82EE881F9810288F389E02DCC
:100BF000D80113966C91CE010995882EE881F98170
:100C00000288F389E02DD80114966C91CE010995E4
:100C10009B2D990D9A0D980D891319C09A2D882D29
:100C2000F601918380839B2D892DD7018D939C9311
:100C300090E080E0DF91CF911F910F91FF90EF90B6
:100C4000DF90CF90BF90AF909F908F90089585E1F7
:100C500090E0F0CF629570E09B0135952795359532
:100C600027952373660F771F660F771F6C7C262BE3
:100C700030E0C901959587958575220F331F2A7A33
:100C8000822B08953F924F925F926F927F928F9244
:100C90009F92AF92BF92CF92DF92EF92FF920F930B
:100CA0001F93CF93DF93EC01162F7A0169010E9405
:100CB00013044B015C01312C111139843601660C8F
:100CC000771C660C771C85E0681A71082701440CB4
:100CD000551C440C551C85E0481A510810E000E0F2
:100CE00060E070E0CB012A813B814C815D81261759
:100CF0003707480759070CF10115110599F582E0EE
:100D0000E816F1041CF0C2010197F1F70E941304E8
:100D1000681979098A099B09EA85F0E0EE0FFF1F3F
:100D2000E058FE4FA591B4912C910F5F1F4F39856C
:100D30002323231105C097FFD6CF6FEF7FEFCB01A1
:100D4000DF91CF911F910F91FF90EF90DF90CF90A7
:100D5000BF90AF909F908F907F906F905F904F90DB
:100D60003F90089582E0C816D10484F2C301CCCF2D
:100D7000FC01828590E00895FC01818590E0089552
:100D8000CF92DF92EF92FF920F931F93CF93DF9357
:100D9000EC017A016901E881F9810190F081E02D8F
:100DA0000995E881F9810480F581E02D9801A6017B
:100DB000B701CE01DF91CF911F910F91FF90EF907E
:100DC000DF90CF900994CF92DF92EF92FF920F9332
:100DD0001F93CF93DF93CDB7DEB728970FB6F89464
:100DE000DEBF0FBECDBFDC011696ED91FC913196B2
:100DF00009F440C08A017B0119821A821B821C827D
:100E00001D821E821F821886DC01ED91FC910084F8
:100E1000F185E02DAE014B5F5F4FBE016F5F7F4FED
:100E200009956C01892BB1F4E114F10441F0698159
:100E30007A818B819C810E94441BF701608301159C
:100E4000110541F06D817E818F8198850E94441B40
:100E5000D8016C93C60128960FB6F894DEBF0FBE7A
:100E6000CDBFDF91CF911F910F91FF90EF90DF9059
:100E7000CF90089587E1C82ED12CECCF262F2D7F5F
:100E800029F4FC01608790E080E0089588E190E01B
:100E90000895DC0117967C936E931697FB01E85535
:100EA000FE4FE4911996EC9319976C567E4FFB0117
:100EB00064911A966C9308952091E7023091E802AC
:100EC0002817390771F49091E5028091E60298178E
:100ED00041F0E091E502F0E0E456FD4F808190E0C2
:100EE00008958FEF9FEF08950895EF92FF920F936B
:100EF0001F93CF93DF93DC015C96ED90FC905D97A0
:100F0000E114F10479F481E090E013969C938E93C0
:100F1000129790E080E0DF91CF911F910F91FF90A9
:100F2000EF9008955196ED91FC91529750968C91C7
:100F30005097982F90950FB75E962C915E97122F31
:100F4000127021FD6095F8942081112319F1282B4E
:100F50002083E7012197F1F728E0462F50E0308108
:100F600060FF1AC0382B3083E7012197F1F7BA01EF
:100F700075956795215089F7112381F08081892328
:100F800080830FBF5C968D919C910197F1F781E072
:100F900090E0C1CF2923DCCF3923E5CF9081892B85
:100FA000EFCF2091E7023091E8022817390771F45A
:100FB0008091E6022091E50290E0805C9F4F821BC9
:100FC000910960E470E00E94941B089590E080E035
:100FD00008952091E7023091E80228173907B9F403
:100FE0009091E5028091E602981789F0E091E50280
:100FF000F0E0E456FD4F80812091E50230E02F5F64
:101000003F4F2F7333272093E50290E008958FEF31
:101010009FEF0895089590E080E00895CF93DF93C7
:10102000EC0160E08E810E94A90361E08E810E9444
:10103000A90360E08E810E94A9038BE891E00197EB
:10104000F1F7DF91CF910895CF92DF92EF92FF9267
:101050000F931F93CF93DF936C017C0187E0E80E21
:10106000F11CD0E0C0E0062F10E0B8010C2E02C049
:10107000759567950A94E2F76170F70181917F0198
:101080000E94A9032196C430D10579F7C601DF91EA
:10109000CF911F910F91FF90EF90DF90CF900C9424
:1010A0000E08CF92DF92EF92FF920F931F93CF9390
:1010B000DF93EC01F62E642F8C810E94A9038D81B1
:1010C0008F3F19F060E00E94A9030F2D10E08F857B
:1010D00084FF25C06E0187E0C80ED11CF12CE12CE5
:1010E000B8010E2C02C0759567950A94E2F76170FD
:1010F000F60181916F010E94A903FFEFEF1AFF0A29
:1011000088E0E816F10461F7CE01DF91CF911F91DD
:101110000F91FF90EF90DF90CF900C940E08B801E4
:1011200084E0759567958A95E1F7CE010E942408C1
:101130006F2DCE01DF91CF911F910F91FF90EF9016
:10114000DF90CF900C94240840E0682F83E294E075
:101150000C94510881E00E94A4088BE39FE1019761
:10116000F1F70895CF93DF93823029F49091320400
:10117000986090933204809336041092370480E490
:101180008093380480E18093390480E580933A04A9
:1011900061E0809127040E94D703809128048F3F4B
:1011A00019F061E00E94D70361E0809129040E9458
:1011B000D703C3E2D4E09E0123523440809132042D
:1011C00084FD0BC084E090E021962817390744F491
:1011D00061E08E810E94D703EECF88E090E0F4CFEB
:1011E0008BE39DE00197F1F760E0809127040E9476
:1011F000A90360E0809129040E94A903809128043A
:101200008F3F19F060E00E94A9038091320484FDB1
:1012100034C063E083E294E00E942408CBE4D6E487
:10122000CE010197F1F763E083E294E00E94240885
:101230002197F1F763E083E294E00E94240883E5BC
:1012400092E00197F1F762E083E294E00E942408C3
:101250008091320480620E94A40884E08093330469
:101260008CE00E94A4080E94AA0882E080933404C3
:1012700086E0DF91CF910C94A40880620E94A408BC
:101280008BE496E40197F1F78091320480620E942A
:10129000A40883E592E00197F1F78091320480621F
:1012A0000E94A408D5CF90913604891710F08FEFD3
:1012B000890FE82FF0E0ED5DFB4F848980680C9486
:1012C000A40841E00E94510881E090E00895FB01EC
:1012D00001900020E9F73197AF01461B570BDC0165
:1012E000ED91FC910280F381E02D09948F929F9201
:1012F000AF92BF92EF92FF920F931F93CF93DF9322
:10130000CDB7DEB7A1970FB6F894DEBF0FBECDBF45
:101310007C01FA01CB0119A2223008F42AE08E01E7
:101320000F5D1F4F822E912CB12CA12CBF01A50166
:1013300094010E94A81BF901CA016A300CF5605D96
:10134000D8016E938D01232B242B252B79F790E068
:1013500080E0109721F0BD01C7010E946709A196A6
:101360000FB6F894DEBF0FBECDBFDF91CF911F91B6
:101370000F91FF90EF90BF90AF909F908F90089546
:10138000695CDECFAC01990F660B770B2AE089EE22
:1013900092E00C947609CF93DF93AC0170E060E0AB
:1013A0002AE089EE92E00E947609EC016EE671E097
:1013B00089EE92E00E9467098C0F9D1FDF91CF910B
:1013C00008954F925F926F927F928F929F92AF9209
:1013D000BF92CF92DF92EF92FF921F93CF93DF9352
:1013E000EC016A017B01AB019601CB01B6010E94C1
:1013F0007F1B61E771E0811126C046015701E89427
:10140000B7F82FEF3FEF4FE75FE7C501B4010E9448
:101410007F1B81110CC02FEF3FEF4FE75FE7C50146
:10142000B4010E94F01865E771E0181664F02FEF20
:101430003FEF4FE75FE4C701B6010E947A1B181621
:10144000A4F469E771E0CE01DF91CF911F91FF9085
:10145000EF90DF90CF90BF90AF909F908F907F9054
:101460006F905F904F900C9467092FEF3FEF4FE71D
:101470005FECC701B6010E94F01887FDE2CF20E0C3
:1014800030E0A901C701B6010E94F018B12CA12CCF
:1014900087FF09C06DE2CE010E9443025C01F7FAAA
:1014A000F094F7F8F0942CEB37E346E055E3C701EE
:1014B000B6010E94661A2B013C010E944B1B6B0176
:1014C0007C010E94F5189B01AC01C301B2010E948E
:1014D000651A2B013C012AE0B701A601CE010E944A
:1014E00076097C01EA0CFB1C6EE2CE010E944302ED
:1014F000E80EF91E17E0115021F120E030E040E243
:1015000051E4C301B2010E9456192B013C010E9413
:101510004B1B4B01B12CA12C2AE0B501A401CE013B
:101520000E947609E80EF91EC501B4010E94F51863
:101530009B01AC01C301B2010E94651A2B013C0161
:10154000DACFC701DF91CF911F91FF90EF90DF902D
:10155000CF90BF90AF909F908F907F906F905F9053
:101560004F9008950F931F93CF93DF93EC010E9448
:1015700067098C016EE671E0CE010E946709800F59
:10158000911FDF91CF911F910F9108950C946709DE
:101590000E94CE1D0F931F93CF93DF93EC018881A0
:1015A0009981009759F02A813B812617370730F03F
:1015B00081E0DF91CF911F910F9108958B016F5FB3
:1015C0007F4F0E94111D009759F0998388831B83D8
:1015D0000A832C813D81232B59F7FC011082E8CF2F
:1015E00080E0E7CFCF93DF93EC018881998100976A
:1015F00011F00E94881C198218821D821C821B8295
:101600001A82DF91CF9108950F931F93CF93DF93A9
:10161000EC010C811D810F5F1F4FB8010E94CA0AA7
:10162000882391F0288139818C819D816DE771E05B
:10163000820F931F0E94DC1D1D830C83CE01DF915E
:10164000CF911F910F910895CE010E94F20AF6CF1B
:10165000EF92FF920F931F93CF93DF93EC017B01E7
:10166000198218821B821A821D821C82FB01019042
:101670000020E9F731978F01061B170BB8010E9474
:10168000CA0A811109C0CE01DF91CF911F910F913C
:10169000FF90EF900C94F20A1D830C83B7018881B0
:1016A0009981DF91CF911F910F91FF90EF900C9452
:1016B000DC1DCF92DF92EF92FF920F931F93CF9397
:1016C000DF93CDB7DEB7A1970FB6F894DEBF0FBE9C
:1016D000CDBF7C01CB01BA01F701118210821382C8
:1016E0001282158214828E010F5F1F4F26E048E0A0
:1016F0000E9475166C01009771F0FC0101900020AA
:10170000E9F731978F01081B190BB801C7010E9437
:10171000CA0A811112C0C7010E94F20AA1960FB62F
:10172000F894DEBF0FBECDBFDF91CF911F910F9117
:10173000FF90EF90DF90CF900895F7011583048319
:10174000B601808191810E94DC1DE8CFEF92FF926B
:101750000F931F93CF93DF93EC01FB01E080F180A7
:10176000E114F10411F10481158101151105A9F0AD
:101770008C819D81080F191FB801CE010E94CA0AF1
:10178000882399F0288139818C819D81B701820F4E
:10179000931F0E94DC1D1D830C83CE01DF91CF912E
:1017A0001F910F91FF90EF900895CE010E94F20AD1
:1017B000F4CFFC0180819181009711F00C94881C7A
:1017C00008954F925F926F927F928F929F92AF9205
:1017D000BF92EF92FF920F931F93CF93DF93EC0191
:1017E0007B0185E0FB0111928A95E9F761E08E812A
:1017F0000E94D70360E08E810E94A90364E170E03B
:1018000080E090E00E94380461E08E810E94A9038C
:1018100068858E810E94D7038FE590E00197F1F7EC
:10182000E881F9810088F189E02D26E030E04AE086
:1018300050E060E0CE0109956E317105810591059A
:10184000ACF4982F872F762F66276061CB01DF914C
:10185000CF911F910F91FF90EF90BF90AF909F900D
:101860008F907F906F905F904F900895E881F981FD
:101870000088F189E02D26E030E04AE050E061E0A8
:10188000CE010995623371058105910534F4982FD5
:10189000872F762F66276161D9CF10E000E0812C79
:1018A000912C54018394E881F9810088F189E02D1D
:1018B00026E030E04AE050E060E0CE010995683172
:1018C00071058105910534F4982F872F762F6627AF
:1018D0006261BCCFE881F9810088F189E02D26E0C2
:1018E00030E04AE050E061E0CE0109956B307105CF
:1018F0008105910534F4982F872F762F6627636131
:10190000A5CFF80133E0F595E7953A95E1F7EE0DAF
:10191000FF1D9801277033272401350104C0440CB2
:10192000551C661C771C2A95D2F7208169327105F7
:1019300081059105FCF0422A40820F5F1F4F08325B
:10194000110509F0B0CFE881F9810088F189E02D17
:1019500026E030E04AE050E060E0CE0109956831D1
:101960007105810591054CF4982F872F762F6627F6
:1019700064616CCF40944222DFCF70E060E066CFBC
:101980001F920F920FB60F9211242F933F934F93F4
:101990005F936F937F938F939F93AF93BF93EF93D7
:1019A000FF9389EE92E00E94C802FF91EF91BF91F0
:1019B000AF919F918F917F916F915F914F913F91E7
:1019C0002F910F900FBE0F901F9018951F920F929E
:1019D0000FB60F9211242F938F939F93EF93FF9342
:1019E000E091F902F091FA028081E091FF02F0911A
:1019F000000382FD1BC09081809102038F5F8F7373
:101A000020910303821741F0E0910203F0E0E751D7
:101A1000FD4F958F80930203FF91EF919F918F91DE
:101A20002F910F900FBE0F901F9018958081F4CFCB
:101A30001F920F920FB60F9211242F933F938F9303
:101A40009F93AF93BF938091DD029091DE02A091AE
:101A5000DF02B091E0023091DC0223E0230F2D374A
:101A600058F50196A11DB11D2093DC028093DD0283
:101A70009093DE02A093DF02B093E0028091E10236
:101A80009091E202A091E302B091E4020196A11DBF
:101A9000B11D8093E1029093E202A093E302B09320
:101AA000E402BF91AF919F918F913F912F910F9041
:101AB0000FBE0F901F90189526E8230F0296A11DC8
:101AC000B11DD2CF1F920F920FB60F9211242F93F8
:101AD0003F934F935F936F937F938F939F93AF93B6
:101AE000BF93EF93FF93E091E702F091E802309704
:101AF00049F0A685B7858585968D91FF14C09C9188
:101B00008923A1F4FF91EF91BF91AF919F918F91A4
:101B10007F916F915F914F913F912F910F900FBEE9
:101B20000F901F9018959C91892361F7A389B48920
:101B30009C918589809589238C93868997890197C3
:101B4000F1F7608D718DA685B785558538E020E069
:101B5000CB010197F1F7822F90E095958795282F7B
:101B60004C91452309F02068315091F7868D81FD15
:101B700020958091E60290E001968F73992730912D
:101B8000E502381799F0A091E602B0E0A456BD4FE7
:101B90002C938093E602828D938D0197F1F7A389B0
:101BA000B4898C919589892B8C93ACCF868D81607B
:101BB000868FF1CFCF92DF92EF92FF92CF93DF9398
:101BC0001092EC021092EB0298EEC92E93E0D92EFF
:101BD000E12CF12CC092ED02D092EE02E092EF02E5
:101BE000F092F0028AE091E09093EA028093E90299
:101BF00085EC90E09093F6028093F50284EC90E0FF
:101C00009093F8028093F70280EC90E09093FA02B0
:101C10008093F90281EC90E09093FC028093FB02A8
:101C200082EC90E09093FE028093FD0286EC90E0BF
:101C3000909300038093FF0210920203109203031B
:101C400010920403109205031092260410922504AA
:101C500086E691E0909324048093230487E08093A8
:101C60002704CFEFC093280486E08093290485E001
:101C700080932A0484E080932B0483E080932C04D7
:101C8000D2E0D0932D0410922E0410922F041092C3
:101C90003004109231041092320481E00E94B208A4
:101CA0004FEF5FEFBA014093B0035093B1036093DD
:101CB000B2037093B3031092B8031092B903109259
:101CC000BA031092BB038FEF99ECAAE9BBE38093B0
:101CD000C0039093C103A093C203B093C303809346
:101CE000C8039093C903A093CA03B093CB03809316
:101CF000D0039093D103A093D203B093D3038093E6
:101D0000D8039093D903A093DA03B093DB038093B5
:101D1000E0039093E103A093E203B093E3034093C5
:101D2000E8035093E9036093EA037093EB038FEFAA
:101D300090E09093F1038093F0034093F403509369
:101D4000F5036093F6037093F7034093FC035093FD
:101D5000FD036093FE037093FF031092040410923E
:101D60000504D093150410921604109217041092D3
:101D700018041092190410921A0410921B04109265
:101D80001C0410921E0410921D0410922004109244
:101D90001F04109206048EE291E09093A6038093B4
:101DA000A50380E291EAA7E0B0E08093A7039093B7
:101DB000A803A093A903B093AA038FEF9FEF90937A
:101DC000AC038093AB031092AD03C093AE03C093FA
:101DD000AF036AE070E085EA93E00E9449078AE475
:101DE00091E09093A6038093A5031092890310922B
:101DF0008803C0928A03D0928B03E0928C03F09206
:101E00008D038CE191E09093870380938603109279
:101E10009D0310929C0310929F0310929E031092B8
:101E2000A1031092A0031092A3031092A203609149
:101E3000A4036E7F6D7F6093A4036695617081E05B
:101E400068278BE00E94A90361E08BE00E94D70322
:101E5000E3EBF1E0E491E0939603EFE9F1E0E49144
:101E6000F0E0EE0FFF1FE657FE4F8591949190939F
:101E700098038093970360E087E00E94D7038091E6
:101E8000A40381FD04C061E087E00E94A90387E00C
:101E900080939203EFEAF1E0E491E0939303EBE99E
:101EA000F1E0E491F0E0EE0FFF1FE058FE4F859166
:101EB00094919093950380939403DF91CF91FF9039
:101EC000EF90DF90CF900895CF93DF93CDB7DEB73B
:101ED000A4970FB6F894DEBF0FBECDBF789484B53B
:101EE000826084BD84B5816084BD85B5826085BD16
:101EF00085B5816085BD80916E00816080936E00A4
:101F00001092810080918100826080938100809195
:101F10008100816080938100809180008160809346
:101F200080008091B10084608093B1008091B00006
:101F300081608093B00080917A00846080937A0001
:101F400080917A00826080937A0080917A0081602B
:101F500080937A0080917A00806880937A00109252
:101F6000C1000E940A011092A1031092A0031092D6
:101F70009F0310929E0310929D0310929C038DE983
:101F800091E09093A3038093A203909192039631E2
:101F900008F047C02DEB30E030939D0320939C0365
:101FA0002BE931E030939F0320939E032CE231E034
:101FB0003093A1032093A0032091680084E098301F
:101FC00048F031E09E3008F430E081E001C0880F35
:101FD0003A95EAF7822B809368002DE630E098303E
:101FE00050F02BE630E09E3030F02CE630E09631B9
:101FF00010F030E020E030939A0320939903292FCA
:1020000030E0983008F051C381E001C0880F9A9504
:10201000EAF780939B038091A2039091A303019719
:10202000F1F78091A0039091A103892B49F1E091F0
:10203000E702F091E80223E0E638F20709F1309771
:1020400039F0A389B4899C918589809589238C93E3
:102050008091A4038E7F8093A4031092E6021092D5
:10206000E50286E893E09093E8028093E702E0912E
:102070009903F0919A03808190919B03892B80832F
:1020800082E00E94B20860E088E00E94D70368EE18
:1020900073E080E090E00E94380460E08EE00E94EF
:1020A000D70361E089E00E94D70380E00E945309D2
:1020B0006FE771E083E294E00E94C60A81E00E942B
:1020C000530960E971E083E294E00E94C60A68EE79
:1020D00073E080E090E00E9438040E94AA080E9409
:1020E0000A0102E088E00E9480037C018EE00E94E9
:1020F0008003019709F0E6C261E089E00E94A9032C
:1021000080E00E94530961EA71E083E294E00E945A
:10211000C60A81E00E94530962EB71E083E294E019
:102120000E94C60A64E670E080E090E00E943804F5
:102130000E94AA08AE01475E5F4FBE01635E7F4FFB
:10214000CE0181960E94760461EC71E086E893E00E
:102150000E94C60A80E00E9453096CEC71E083E2A1
:1021600094E00E94C60A89A09AA0ABA0BCA020E07F
:1021700030E04AE754E4C501B4010E94F01881112F
:1021800003C0812C912C5401B501A40183E294E099
:102190000E94E10981E00E94530962ED71E083E24F
:1021A00094E00E94C60A8D8C9E8CAF8CB8A020E073
:1021B00030E04AE754E4C501B4010E94F0188111EF
:1021C00003C0812C912C5401B501A40183E294E059
:1021D0000E94E10968EE73E080E090E00E9438041C
:1021E0000E94AA0860E971E080E090E00E94380453
:1021F00068ED71E086E893E00E94B20A64EF71E056
:1022000086E893E00E94C60A89A09AA0ABA0BCA071
:1022100020E030E04AE754E4C501B4010E94F01820
:10222000811103C0812C912C5401B501A40186E8D1
:1022300093E00E94E10960E072E086E893E00E948A
:10224000C60A8D8C9E8CAF8CB8A020E030E04AE7A7
:1022500054E4C501B4010E94F018811103C0812C1F
:10226000912C5401B501A40186E893E00E94E10994
:1022700068EC70E080E090E00E9438046EE072E06C
:10228000CE0101960E94280B8D8C9E8CAF8CB8A03D
:1022900020E030E04AE754E4C501B4010E94F018A0
:1022A000811103C0812C912C5401B501A401CE01F0
:1022B00007960E94590B89A09AA0ABA0BCA020E071
:1022C00030E04AE754E4C501B4010E94F0188111DE
:1022D00003C0812C912C5401B501A401CE010D96AF
:1022E0000E94590B62E172E0CE0143960E94280BD6
:1022F000BE01635F7F4FCE0143960E94A60B0E94F2
:10230000040BBE01695F7F4F0E94A60BBE016F5F89
:102310007F4F0E94A60BFC01448155816081718131
:1023200086E893E00E944A02CE0143960E94D90BB0
:10233000CE010D960E94D90BCE0107960E94D90BB3
:10234000CE0101960E94D90B68EC70E080E090E02D
:102350000E9438046AE186E893E00E9443026EE638
:1023600071E086E893E00E94670968EC70E080E025
:1023700090E00E94380460E372E086E893E00E94F7
:10238000B20A68EC70E080E090E00E9438046EE6EB
:1023900071E086E893E00E94670990E080E00E9487
:1023A000CB090E946A044B015C01D12CCC24C3945C
:1023B0000E946A04681979098A099B09683E73407A
:1023C0008105910508F461C2EA94EF2809F030C153
:1023D000DD2009F42DC10E94AA08AE01475E5F4FBF
:1023E000BE01635E7F4FCE0181960E94760461EC50
:1023F00071E086E893E00E94C60A80E00E945309DB
:102400006CEC71E083E294E00E94C60AC9A0DAA0F5
:10241000EBA0FCA020E030E04AE754E4C701B6019D
:102420000E94F018811103C0C12CD12C7601B70194
:10243000A60183E294E00E94E10981E00E94530931
:1024400062ED71E083E294E00E94C60ACD8CDE8CDE
:10245000EF8CF8A020E030E04AE754E4C701B60171
:102460000E94F018811103C0C12CD12C7601B70154
:10247000A60183E294E00E94E10968EE73E080E047
:1024800090E00E9438040E94AA0860E971E080E0B0
:1024900090E00E94380468ED71E086E893E00E94C5
:1024A000B20A64EF71E086E893E00E94C60AC9A010
:1024B000DAA0EBA0FCA020E030E04AE754E4C7013A
:1024C000B6010E94F018811103C0C12CD12C7601F5
:1024D000B701A60186E893E00E94E10960E072E09E
:1024E00086E893E00E94C60ACD8CDE8CEF8CF8A0C3
:1024F00020E030E04AE754E4C701B6010E94F0183A
:10250000811103C0C12CD12C7601B701A60186E848
:1025100093E00E94E10968EC70E080E090E00E94A6
:1025200038046EE072E0CE0101960E94280BCD8C3B
:10253000DE8CEF8CF8A020E030E04AE754E4C701DD
:10254000B6010E94F018811103C0C12CD12C760174
:10255000B701A601CE0107960E94590BC9A0DAA0C7
:10256000EBA0FCA020E030E04AE754E4C701B6014C
:102570000E94F018811103C0C12CD12C7601B70143
:10258000A601CE010D960E94590B62E172E0CE01C8
:1025900043960E94280BBE01635F7F4FCE01439696
:1025A0000E94A60B0E94040BBE01695F7F4F0E9430
:1025B000A60BBE016F5F7F4F0E94A60BFC014481FA
:1025C00055816081718186E893E00E944A02CE01C4
:1025D00043960E94D90BCE010D960E94D90BCE01D5
:1025E00007960E94D90BCE0101960E94D90B68EC88
:1025F00070E080E090E00E9438046AE186E893E0B1
:102600000E9443026EE671E086E893E00E9467094B
:1026100068EC70E080E090E00E9438046EE671E0C3
:1026200086E893E00E94670990E080E00E94CB0971
:1026300090E080E00E94CB091F82198230E020E008
:10264000AE014F5F5F4FBE01695F7F4F85EA93E048
:102650000E94E3067C01892B09F410C36BE772E04A
:1026600089EE92E00E94C60AC70199270E94C2091A
:102670006DE771E089EE92E00E94C60A8F2D90E02E
:102680000E94CB0968EE73E080E090E00E9438047D
:1026900080E090E0892B09F425CD0E94B4028823C4
:1026A00009F41FCD0E9400001CCD9E3040F428503C
:1026B000310981E001C0880F2A95EAF7AACC2E5093
:1026C0003109F7CF0E94AA0860E089E00E94A903BF
:1026D00068CE1A3209F405C11C3209F0BBC28091E0
:1026E0000404812780930404FCC090911604F0E058
:1026F000EA5FFB4F108270900504772009F46AC1ED
:1027000020910604822F022E000C990B3FEB320F12
:10271000363008F0EBC0C7978295807F9091070410
:10272000292F092E000C330B4FEB490F463008F0D0
:10273000E5C027533109820F90910404891340C1E9
:1027400070901804772009F4CFC080911D049091F7
:102750001E04019690931E0480931D048091F8033B
:102760009091F903A091FA03B091FB038093F403D5
:102770009093F503A093F603B093F70380910004C0
:1027800090910104A0910204B09103048093FC0392
:102790009093FD03A093FE03B093FF038091150473
:1027A000882309F4B4C0813009F060C08091B4037B
:1027B0009091B503A091B603B091B7038093B00395
:1027C0009093B103A093B203B093B3038091BC0381
:1027D0009091BD03A091BE03B091BF038093B80355
:1027E0009093B903A093BA03B093BB038091C40341
:1027F0009091C503A091C603B091C7038093C00315
:102800009093C103A093C203B093C3038091CC0300
:102810009091CD03A091CE03B091CF038093C803D4
:102820009093C903A093CA03B093CB038091DC03B8
:102830009091DD03A091DE03B091DF038093D80374
:102840009093D903A093DA03B093DB038091E40360
:102850009091E503A091E603B091E7038093E00334
:102860009093E103A093E203B093E30380911604F5
:102870008F5F809316041092170481E01A3209F0DA
:1028800080E0809305047110D72C89EE92E00E94BD
:10289000A802892B09F48CCD89EE92E00E94860271
:1028A000182F8091190490911A04A0911B04B091E3
:1028B0001C040196A11DB11D8093190490931A0464
:1028C000A0931B04B0931C04143209F4B6C1E09128
:1028D000170415320CF0FDCE1A3019F01D3009F036
:1028E000B9C1EF3008F401CF712CC0CF215626308A
:1028F00018F48755910910CFC0970ECF9156963096
:1029000018F42755310917CF2053310914CF80917E
:10291000D4039091D503A091D603B091D7038093AF
:10292000D0039093D103A093D203B093D3038091AB
:10293000B4039091B503A091B603B091B70380930F
:10294000B0039093B103A093B203B093B30380910B
:10295000C4039091C503A091C603B091C7038093AF
:10296000C0039093C103A093C203B093C3038091AB
:10297000CC039091CD03A091CE03B091CF0380936F
:10298000C8039093C903A093CA03B093CB0380916B
:10299000F2039091F3039093F1038093F0038091FD
:1029A000EC039091ED03A091EE03B091EF038093BF
:1029B000E8039093E903A093EA03B093EB0356CFA7
:1029C00080911F049091200401969093200480939D
:1029D0001F048ACF91111CC0A6E0B4E04FE652E07C
:1029E0009D01F90181919F01882309F45CC1FA01DD
:1029F0009191AF018917A9F3E5E7F2E08D91882362
:102A000009F454C191918917C9F3009315042ECF8D
:102A1000E0911504E23009F467CF80910604882321
:102A200009F462CF20E2E29FF0011124E92B3197F3
:102A3000E932F10508F01ACFE05EFA4E0C94CA1B99
:102A4000661581159615B115BC15F615FD150716F9
:102A50001216361436143614361436143614361448
:102A60003614361436143614361436143614361416
:102A70003614361436143614361436143614361406
:102A800066157B1581159615B115BC15D715E21580
:102A90004915E6E0F4E020E030E0A901619080ED26
:102AA000860D8A3008F099C0AAE0B0E00E94141A9E
:102AB000262D660C330B440B550B260F371F481F72
:102AC000591F2053310941095109E8CF0E943201B1
:102AD0006093B4037093B5038093B6039093B703E8
:102AE0000E946A046093F8037093F9038093FA03D9
:102AF0009093FB03BBCE91E0813409F47BC090E05E
:102B000079C00E94A4016093C4037093C5038093AD
:102B1000C6039093C7030E946A04609300047093F5
:102B200001048093020490930304A0CE833509F03E
:102B3000DBCE8091C4039091C503A091C603B091F0
:102B4000C703B095A095909581959F4FAF4FBF4F0C
:102B50008093C4039093C503A093C603B093C703A7
:102B600085CE0E94A4016093CC037093CD03809323
:102B7000CE039093CF037ACE873509F0B5CE8091FE
:102B8000CC039091CD03A091CE03B091CF03B0952B
:102B9000A095909581959F4FAF4FBF4F8093CC03E9
:102BA0009093CD03A093CE03B093CF035FCE0E944A
:102BB00032016093DC037093DD038093DE03909316
:102BC000DF0354CE0E9432016093E4037093E50367
:102BD0008093E6039093E70349CE2093BC033093A0
:102BE000BD034093BE035093BF0340CE91E08133B9
:102BF0000CF485CF9093180439CE86E094E00E94BF
:102C0000931699279093F3038093F2032FCE0E949B
:102C100032016093EC037093ED038093EE03909385
:102C2000EF0324CE0E9432016093D4037093D50346
:102C30008093D6039093D70319CE10921704109265
:102C400016041092040400931504109205041092C7
:102C500018041BCEEE3040F481E08E0F80931704F1
:102C6000F0E0EA5FFB4F10838091050481110DCEE7
:102C70008091040418271093040407CE8F8190E0FC
:102C80000E94C20963E972E089EE92E00E94C60ADE
:102C9000898190E00E94C20969E972E089EE92E0C0
:102CA0000E94B20AF5CCC0921504E0CD1092150432
:102CB000DDCD8CE191E09093870380938603809132
:102CC000E7029091E8028658934071F4E0919903ED
:102CD000F0919A03908180919B0380958923808352
:102CE0001092E8021092E7020895EF920F931F935B
:102CF000CF93DF93E80134E047FD34E1042E000C6C
:102D0000550B57FF03C0519541955109E32E022FF2
:102D1000242FAE010E94B916CE01DF91CF911F91F1
:102D20000F91EF900895FC0188279927E89421914D
:102D30002032E9F3293010F02E30C8F32B3241F065
:102D40002D3239F4689404C00E94B116820F911D8F
:102D5000219120532A30C0F31EF4909581959F4F06
:102D600008957AE0979F902D879F802D910D1124D3
:102D70000895A9E0B0E0EFEBF6E10C94251A6A01A2
:102D8000F22EB02E102FFBE3AF2EA01608F41BE39B
:102D90001F5F012F27E0AE014F5F5F4F0E941818A1
:102DA000BC018981982F9970913009F43FC09BE252
:102DB000E1FC04C09E2D9170E0FC3AC05E2D507184
:102DC000E82FE87083FF46C084E0911101C083E0E2
:102DD000EF2DE81B8F1508F0E0E0D6018E2F20E2E2
:102DE000552351F1992329F0D6019C93C6010196F0
:102DF0006C0196012D5F3F4FE2FE24C08EE4D601A8
:102E00008C9391E411969C93119712968C93D9010F
:102E10008E2F90E281111BC0E20FF32FF11D108263
:102E20008EEF9FEF2996ECE00C94411A9DE2C6CFFD
:102E300090E2C4CF2D9381508111FCCFCE0ED11CD6
:102E4000E0E0D0CF8EE6D6018C9391E6DBCF9D9368
:102E50008150E0CF482F447082FF3DC084E0911143
:102E600001C083E08F1510F4EF2DE81BD6018E2FE3
:102E700020E2552309F1992329F0D6019C93C6013C
:102E800001966C0196012D5F3F4FE2FE1BC089E465
:102E9000D6018C938EE411968C93119786E412964A
:102EA0008C93D9018E2F90E2882309F4B5CF9D939E
:102EB0008150FACF2D9381508111FCCFCE0ED11CC1
:102EC000E0E0D9CF89E6D6018C938EE611968C93FB
:102ED000119786E6E4CF9B0177FF02C030E020E047
:102EE000A1E0B0E0911102C0B0E0A0E0F90131969C
:102EF000AE0FBF1F8B2C912CBB2009F461C0540175
:102F0000EFEFAE1ABE0AAA0DBB1DFA161B0619F08A
:102F100014F04F2D4A1B511188C0E3FC59C07601B3
:102F2000A42FB0E2A1114FC0C40ED11C992309F403
:102F30005BC040E0D6011196F60190836D015523E8
:102F400009F448C0012F060F9A81582F507184FF51
:102F500003C0913309F4015010160CF047C009303A
:102F600008F008E0EEE2FE2E5B01A01AB108850130
:102F70009194819491082F3F320729F4D601FC9255
:102F8000F60131966F016217730794F10217130768
:102F90007CF5DB01A21BB30BAA24A394B12CAC0ECD
:102FA000BD1EAA0DBB1D11968C9121503109D60171
:102FB000119628153905F4F0F60180836D01DBCFF9
:102FC000B12CA12CA0CFF701B1937F01A150AACFC2
:102FD0009111B0CFD601942F50E302C05D93915070
:102FE0009111FCCFC40ED11C40E0ACCF01E0BACFB0
:102FF00080E3DBCF6217730731F4963388F495339F
:1030000011F4552369F0F6018083FD01842F90E2CD
:10301000811108C0A40FB11D1C9290E080E002CF86
:1030200081E3F1CF91938150F3CF911183CF8ACF78
:10303000283008F027E03327DA01990F311D87FD8A
:10304000916000966105710539F432602E5F3D9301
:1030500030E32A95E1F708959F3F30F080387105FD
:10306000610509F03C5F3C5F3D93913008F080685A
:10307000911DDF93CF931F930F93FF92EF92192F20
:10308000987F9695E92F96959695E90FFF27EE5331
:10309000FF4F99273327EE24FF24A701E70105906E
:1030A0000894079428F4360FE71EF81E491F511D97
:1030B000660F771F881F991F0694A1F70590079444
:1030C00028F4E70EF81E491F561FC11D770F881FF1
:1030D000991F661F0694A1F70590079428F4F80E2F
:1030E000491F561FC71FD11D880F991F661F771FC5
:1030F0000694A1F70590079420F4490F561FC71FA7
:10310000D81F990F661F771F881F0694A9F784910F
:103110001095177041F0D695C79557954795F79438
:10312000E7941A95C1F7E8E6F0E0689415901591D8
:1031300035916591959105907FE27395E118F10ABB
:10314000430B560BC90BD009C0F7E10CF11E431F0E
:10315000561FC91FD01D7EF4703311F48A95E6CF37
:10316000E894015030F0080F0AF40027021708F421
:10317000202F2395022F7A3328F079E37D932A9527
:10318000E9F710C07D932A9589F60694979567957F
:10319000379517951794E118F10A430B560BC90B95
:1031A000D00998F023957E9173957A3308F070E3F7
:1031B0007C932013B8F77E9170617D9330F08395F6
:1031C00071E37D9370E32A95E1F71124EF90FF906E
:1031D0000F911F91CF91DF91992787FD90950895C9
:1031E0000E94321908F481E00895E89409C097FB21
:1031F0003EF490958095709561957F4F8F4F9F4FCE
:103200009923A9F0F92F96E9BB279395F695879511
:1032100077956795B795F111F8CFFAF4BB0F11F4D4
:1032200060FF1BC06F5F7F4F8F4F9F4F16C088237B
:1032300011F096E911C0772321F09EE8872F762FB1
:1032400005C0662371F096E8862F70E060E02AF0F2
:103250009A95660F771F881FDAF7880F96958795DE
:1032600097F90895990F0008550FAA0BE0E8FEEFB3
:1032700016161706E807F907C0F012161306E4073A
:10328000F50798F0621B730B840B950B39F40A2633
:1032900061F0232B242B252B21F408950A2609F411
:1032A000A140A6958FEF811D811D08950E94691987
:1032B0000C94DA190E94CC1938F00E94D31920F02E
:1032C000952311F00C94C3190C94C91911240C9472
:1032D0000E1A0E94EB1970F3959FC1F3950F50E001
:1032E000551F629FF001729FBB27F00DB11D639FB8
:1032F000AA27F00DB11DAA1F649F6627B00DA11D5E
:10330000661F829F2227B00DA11D621F739FB00D03
:10331000A11D621F839FA00D611D221F749F332773
:10332000A00D611D231F849F600D211D822F762F0C
:103330006A2F11249F5750409AF0F1F088234AF0E9
:10334000EE0FFF1FBB1F661F771F881F9150504055
:10335000A9F79E3F510580F00C94C3190C940E1AE6
:103360005F3FE4F3983ED4F3869577956795B795DC
:10337000F795E7959F5FC1F7FE2B880F911D9695F6
:10338000879597F9089597F99F6780E870E060E066
:1033900008959FEF80EC089500240A9416161706EE
:1033A00018060906089500240A9412161306140636
:1033B00005060895092E0394000C11F4882352F099
:1033C000BB0F40F4BF2B11F460FF04C06F5F7F4F51
:1033D0008F4F9F4F089557FD9058440F551F59F038
:1033E0005F3F71F04795880F97FB991F61F09F3FF2
:1033F00079F087950895121613061406551FF2CF1B
:103400004695F1DF08C0161617061806991FF1CF6A
:1034100086957105610508940895E894BB27662791
:103420007727CB0197F908950E94561AA59F900D12
:10343000B49F900DA49F800D911D112408952F928B
:103440003F924F925F926F927F928F929F92AF9234
:10345000BF92CF92DF92EF92FF920F931F93CF9381
:10346000DF93CDB7DEB7CA1BDB0B0FB6F894DEBF18
:103470000FBECDBF09942A88398848885F846E843E
:103480007D848C849B84AA84B984C884DF80EE8088
:10349000FD800C811B81AA81B981CE0FD11D0FB691
:1034A000F894DEBF0FBECDBFED010895A29FB0011D
:1034B000B39FC001A39F700D811D1124911DB29F68
:1034C000700D811D1124911D08955058BB27AA2706
:1034D0000E947D1A0C94DA190E94CC1938F00E94CF
:1034E000D31920F039F49F3F19F426F40C94C9192C
:1034F0000EF4E095E7FB0C94C319E92F0E94EB1939
:1035000058F3BA17620773078407950720F079F418
:10351000A6F50C940D1A0EF4E0950B2EBA2FA02DE3
:103520000B01B90190010C01CA01A0011124FF2770
:10353000591B99F0593F50F4503E68F11A16F0406B
:10354000A22F232F342F4427585FF3CF469537956A
:103550002795A795F0405395C9F77EF41F16BA0B2F
:10356000620B730B840BBAF09150A1F0FF0FBB1FDD
:10357000661F771F881FC2F70EC0BA0F621F731F26
:10358000841F48F4879577956795B795F7959E3F83
:1035900008F0B0CF9395880F08F09927EE0F979514
:1035A000879508950E94E61A0C94DA190E94D3199F
:1035B00058F00E94CC1940F029F45F3F29F00C9498
:1035C000C31951110C940E1A0C94C9190E94EB19CD
:1035D00068F39923B1F3552391F3951B550BBB2742
:1035E000AA2762177307840738F09F5F5F4F220F87
:1035F000331F441FAA1FA9F335D00E2E3AF0E0E87E
:1036000032D091505040E695001CCAF72BD0FE2FC7
:1036100029D0660F771F881FBB1F2617370748075B
:10362000AB07B0E809F0BB0B802DBF01FF27935813
:103630005F4F3AF09E3F510578F00C94C3190C94FB
:103640000E1A5F3FE4F3983ED4F38695779567951D
:10365000B795F7959F5FC9F7880F911D9695879548
:1036600097F90895E1E0660F771F881FBB1F621767
:1036700073078407BA0720F0621B730B840BBA0B25
:10368000EE1F88F7E09508950E944B1B6894B111D6
:103690000C940E1A08950E94F31988F09F5798F021
:1036A000B92F9927B751B0F0E1F0660F771F881F47
:1036B000991F1AF0BA95C9F714C0B13091F00E9461
:1036C0000D1AB1E008950C940D1A672F782F8827F2
:1036D000B85F39F0B93FCCF3869577956795B39588
:1036E000D9F73EF490958095709561957F4F8F4FF7
:1036F0009F4F08950E94321908F48FEF08950E9499
:103700003219880B990B0895DB018F939F930E94C8
:10371000141ABF91AF91A29F800D911DA39F900D90
:10372000B29F900D1124089597FB072E16F4009474
:1037300007D077FD09D00E94D81B07FC05D03EF4C6
:10374000909581959F4F0895709561957F4F08954D
:10375000A1E21A2EAA1BBB1BFD010DC0AA1FBB1F95
:10376000EE1FFF1FA217B307E407F50720F0A21B07
:10377000B30BE40BF50B661F771F881F991F1A9474
:1037800069F760957095809590959B01AC01BD019E
:10379000CF010895EE0FFF1F0590F491E02D0994DD
:1037A000B7FF0C94141A0E94141A821B930B0895ED
:1037B000AA1BBB1B51E107C0AA1FBB1FA617B70757
:1037C00010F0A61BB70B881F991F5A95A9F7809573
:1037D0009095BC01CD0108950F931F93CF93DF9374
:1037E0008230910510F482E090E0E0913D04F09188
:1037F0003E0430E020E0B0E0A0E0309799F42115DD
:10380000310509F44AC0281B390B24303105D8F59D
:103810008A819B816115710589F1FB019383828304
:10382000FE0111C04081518102811381481759075F
:10383000E0F04817590799F4109761F012960C932D
:10384000129713961C933296CF01DF91CF911F915F
:103850000F91089500933D0410933E04F4CF211579
:10386000310551F04217530738F0A901DB019A01E5
:10387000BD01DF01F801C1CFEF01F9CF90933E0404
:1038800080933D04CDCFFE01E20FF31F819391930E
:103890002250310939832883D7CF20913B043091BE
:1038A0003C04232B41F42091020130910301309319
:1038B0003C0420933B04209100013091010121152B
:1038C000310541F42DB73EB74091040150910501F7
:1038D000241B350BE0913B04F0913C04E217F30705
:1038E000A0F42E1B3F0B2817390778F0AC014E5F70
:1038F0005F4F2417350748F04E0F5F1F50933C046D
:1039000040933B04819391939FCFF0E0E0E09CCF04
:10391000CF93DF930097E9F0FC0132971382128274
:10392000A0913D04B0913E04ED0130E020E01097FD
:10393000A1F420813181820F931F20913B043091AB
:103940003C042817390709F061C0F0933C04E09368
:103950003B04DF91CF910895EA01CE17DF07E8F528
:103960004A815B819E0141155105B1F7E901FB8355
:10397000EA8349915991C40FD51FEC17FD0761F4F3
:10398000808191810296840F951FE9019983888334
:10399000828193819B838A83F0E0E0E012968D918F
:1039A0009C9113970097B9F52D913C911197CD01FA
:1039B0000296820F931F20913B0430913C042817FC
:1039C000390739F6309751F510923E0410923D04B4
:1039D000B0933C04A0933B04BCCFD383C28340810B
:1039E0005181840F951FC817D90761F44E5F5F4F4F
:1039F00088819981480F591F518340838A819B8117
:103A0000938382832115310509F0B0CFF0933E04F2
:103A1000E0933D049ECFFD01DC01C0CF13821282F2
:103A2000D7CFB0E0A0E0E7E1FDE10C94211A8C01D2
:103A3000009751F4CB010E94EC1B8C01C801CDB75B
:103A4000DEB7E0E10C943D1AFC01E60FF71F9C0184
:103A500022503109E217F30708F49DC0D901CD9136
:103A6000DC911197C617D70798F0C530D10530F310
:103A7000CE0104978617970708F3C61BD70B22972A
:103A8000C193D1936D937C93CF010E94881CD6CFB4
:103A90005B01AC1ABD0A4C018C0E9D1EA0913D0429
:103AA000B0913E04512C412CF12CE12C109731F5B2
:103AB00080913B0490913C048815990509F05CC005
:103AC0004616570608F058C08091000190910101F8
:103AD000009741F48DB79EB74091040150910501C4
:103AE000841B950BE817F90708F055C0F0933C04C8
:103AF000E0933B04F90171836083A0CF8D919C9189
:103B0000119712966C90129713967C901397A815A4
:103B1000B90559F56C0142E0C40ED11CCA14DB048E
:103B200020F1AC014A195B09DA011296159780F071
:103B30006282738251834083D9016D937C93E11437
:103B4000F10471F0D7011396FC93EE93129776CFA0
:103B500022968C0F9D1FF90191838083F301EFCF93
:103B6000F0933E04E0933D0469CF4816590608F4EB
:103B70002C017D01D3019ACFCB010E94EC1B7C016B
:103B8000009749F0AE01B8010E94D31DC8010E9400
:103B9000881C870153CF10E000E050CF81E090E017
:103BA000F8940C94E31DFB01DC0102C001900D921E
:103BB00041505040D8F70895FB01DC0101900D926F
:103BC0000020E1F7089510E0CFEDD0E004C0FE0141
:103BD0000E94CA1B2196C03ED107C9F7F894FFCFB7
:103BE00000003F04800000000000EA024A02770261
:103BF0003703A80286029A020000000075074A02F5
:103C00000B087407D107E9075C07000000004907AB
:103C10003E07E306C006C80AC80ABC06B806420644
:103C20002A06C80AC4050000000049073E07E3064B
:103C3000C00623050005BC06B80642062A06E10BAD
:103C4000C4050000000061094A020B080A080D0AB9
:103C5000006E616E00696E66006F7666002C004132
:103C600043434944454E5420444554454354490038
:103C70002D4F4E20414E4420414E414C5953495303
:103C800000414C434F484F4C204445544543544514
:103C90004400434152205455524E4544204F46461D
:103CA0000041542B434D47463D310D004C61743D5E
:103CB00020004C6F6E3D20004154202B20434D4787
:103CC00053203D20222B39313737393538363534BA
:103CD000363222004C61746974756465203D2000A1
:103CE000204C6F6E676974756465203D2000313526
:103CF0007A0068747470733A2F2F7777772E676F16
:103D00006F676C652E636F6D2F6D6170732F400050
:103D1000416C63686F686F6C20436F6E74656E747E
:103D200020646574656374656420696E20447269FB
:103D30007665722773204272656174682061742011
:103D400061626F7665206C6F636174696F6E0047A6
:103D500050524D430047504747410052656164202F
:103D60004448543131206661696C65642C20657269
:0C3D7000723D00202A432C200020480057
:00000001FF
