:100000000C94E0000C9408010C9408010C94C40CAE
:100010000C94C40C0C94C40C0C9408010C940801AE
:100020000C9408010C9408010C9408010C9408012C
:100030000C9408010C9408010C9408010C9408011C
:100040000C947A0C0C9408010C94480C0C94220C1F
:100050000C9408010C9408010C9408010C940801FC
:100060000C9408010C94080100407A10F35A00A087
:10007000724E18090010A5D4E80000E87648170071
:1000800000E40B54020000CA9A3B000000E1F505B1
:10009000000080969800000040420F000000A086FB
:1000A00001000000102700000000E803000000002D
:1000B0006400000000000A000000000001000000D1
:1000C00000002C76D888DC674F0823DFC1DFAE59EB
:1000D000E1B1B796E5E3E453C63AE651997696E87E
:1000E000E6C28426EB898C9B62ED407C6FFCEFBC02
:1000F0009C9F40F2BAA56FA5F490055A2AF75C932D
:100100006B6CF9676DC11BFCE0E40D47FEF520E662
:10011000B500D0ED902E0300943577050080841E45
:10012000080000204E0A000000C80C333333330FA0
:10013000986E12831141EF8D2114893BE65516CF3D
:10014000FEE6DB18D1844B381BF77C1D901DA4BB49
:10015000E424203284725E228100C9F124ECA1E5FE
:100160003D2700000000240027002A0000000008AE
:10017000000201000003040700000000000000006E
:1001800000000000230026002900000000002500D8
:1001900028002B00040404040404040402020202E4
:1001A000020203030303030301020408102040803A
:1001B0000102040810200102040810203C0D8A14DA
:1001C00011241FBECFEFD8E0DEBFCDBF24E0AEE5E7
:1001D000B2E001C01D92A130B207E1F712E0A0E049
:1001E000B1E0E2E4F8E302C005900D92AE35B1074C
:1001F000D9F710E0CFEDD0E004C02197FE010E94B6
:10020000FB19CE3DD107C9F70E94C60E0C94141CF1
:100210000C940000EBEAF2E0A089B18982E08C93B3
:10022000A485B5851C92A685B7858FEC8C93108E1E
:10023000A489B58986E08C93A289B3898C91806169
:100240008C93A289B3898C9188608C93A289B3899D
:100250008C9180688C930288F389E02D80818F7D5A
:10026000808308950F931F93CF93DF93C091C803AA
:10027000E9ECF3E0CD3211F0E8ECF3E08F0120E09F
:1002800030E0A901D801DD918D0180ED8D0F8A301C
:1002900090F4AAE0B0E00E9445182D2FDD0F330B3B
:1002A000440B550B260F371F481F591F2053310988
:1002B00041095109E7CFA4E6B0E00E944518AB011F
:1002C000BC01DF01819190ED980F9A30D0F38E320E
:1002D00059F511968C91119790ED980F9A3020F561
:1002E000082E000C990BC0972AE0289F8001299FB7
:1002F000100D1124012E000C220B330B400F511F47
:10030000621F731F12968C9190ED980F9A3060F4D3
:10031000082E000C990BC097092E000CAA0BBB0BE2
:10032000480F591F6A1F7B1FCD3239F470956095B5
:10033000509541955F4F6F4F7F4FCB01BA01DF91D1
:10034000CF911F910F9108954F925F926F927F927C
:100350008F929F92AF92BF92CF92DF92EF92FF92D5
:100360001F93CF93DF93C8ECD3E0FE01C12CD12CB7
:100370007601119180ED810F8A30A8F4AAE0B0E0F7
:10038000A70196010E944518C12E110FDD08EE0845
:10039000FF08C60ED71EE81EF91E80E3C81AD10852
:1003A000E108F108E6CFC701B60124E630E040E0FD
:1003B00050E00E94D9199B01AC0160EA76E881E027
:1003C00090E00E94B5194B015C019E01899190ED6E
:1003D000980F9A30D0F38E3221F5E901219680E111
:1003E000482E87E2582E612C712CA99180ED8A0F3E
:1003F0008A30B8F40A2E000CBB0BD097A3019201EF
:100400000E94011A860E971EA81EB91EC301B201D2
:100410002AE030E040E050E00E94D91929013A0179
:10042000E4CFC701B60124E630E040E050E00E948E
:10043000D91960E472E48FE090E00E94B5196B0175
:100440007C01C501B4016D5F7F4F8F4F9F4F26E048
:1004500030E040E050E00E94D919C701B601620FB8
:10046000731F841F951FDF91CF911F91FF90EF9015
:10047000DF90CF90BF90AF909F908F907F906F90C4
:100480005F904F900895DC01ED91FC910190F08117
:10049000E02D0994AF92BF92CF92DF92EF92FF923C
:1004A0000F931F93CF93DF936C017B018B01040F9C
:1004B000151FEB015E01AE18BF08C017D10759F038
:1004C0006991D601ED91FC910190F081E02DC6017A
:1004D0000995892B79F7C501DF91CF911F910F9174
:1004E000FF90EF90DF90CF90BF90AF900895FC0108
:1004F000538D448D252F30E0842F90E0821B930B89
:10050000541710F0CF96089501970895FC01918D2E
:10051000828D981761F0A28DAE0FBF2FB11D5D9631
:100520008C91928D9F5F9F73928F90E008958FEFD3
:100530009FEF0895FC01918D828D981731F0828D87
:10054000E80FF11D858D90E008958FEF9FEF0895DE
:10055000FC01918D228D892F90E0805C9F4F821B42
:1005600091098F73992708958BEA92E00E94A8025F
:1005700021E0892B09F420E0822F089580E090E0AB
:10058000892B29F00E94B40281110C940000089577
:10059000FC01A48DA80FB92FB11DA35ABF4F2C91F8
:1005A000848D90E001968F739927848FA689B789EF
:1005B0002C93A089B1898C91837080648C93938DE6
:1005C000848D981306C00288F389E02D80818F7D89
:1005D00080830895EF92FF920F931F93CF93DF9341
:1005E000EC0181E0888F9B8D8C8D98131AC0E8896F
:1005F000F989808185FF15C09FB7F894EE89FF893E
:100600006083E889F98980818370806480839FBFDB
:1006100081E090E0DF91CF911F910F91FF90EF90DB
:100620000895F62E0B8D10E00F5F1F4F0F731127EB
:10063000E02E8C8D8E110CC00FB607FCFACFE88926
:10064000F989808185FFF5CFCE010E94C802F1CFE4
:10065000EB8DEC0FFD2FF11DE35AFF4FF0829FB79A
:10066000F8940B8FEA89FB8980818062CFCFCF938A
:10067000DF93EC01888D8823B9F0AA89BB89E889CA
:10068000F9898C9185FD03C0808186FD0DC00FB670
:1006900007FCF7CF8C9185FFF2CF808185FFEDCFEE
:1006A000CE010E94C802E9CFDF91CF910895833037
:1006B00081F028F4813099F08230A9F008958730D4
:1006C000A9F08830C9F08430B1F4809180008F7D2A
:1006D00003C0809180008F7780938000089584B557
:1006E0008F7784BD089584B58F7DFBCF8091B00056
:1006F0008F778093B00008958091B0008F7DF9CFFF
:10070000CF93DF93282F30E0F901E459FE4F849115
:10071000F901E855FE4FD491F901EC56FE4FC49112
:10072000CC23A1F081110E945703EC2FF0E0EE0FD3
:10073000FF1FE058FE4FA591B491EC91ED2381E0AD
:1007400090E009F480E0DF91CF91089580E090E09F
:10075000FACF1F93CF93DF93282F30E0F901E459AC
:10076000FE4F8491F901E855FE4FD491F901EC5602
:10077000FE4FC491CC23A9F0162F81110E9457037C
:10078000EC2FF0E0EE0FFF1FE657FE4FA591B4915E
:100790008FB7F894EC91111108C0D095DE23DC934B
:1007A0008FBFDF91CF911F910895DE2BF8CFCF93AC
:1007B000DF9390E0FC01E855FE4F24918C569E4F4C
:1007C000FC0184918823C9F090E0880F991FFC01F7
:1007D000EE59FE4FA591B491FC01E657FE4FC5912D
:1007E000D49161110DC09FB7F8948C91209582230C
:1007F0008C938881282328839FBFDF91CF91089510
:10080000623051F49FB7F8943C91822F80958323F6
:100810008C93E8812E2BEFCF8FB7F894EC912E2B91
:100820002C938FBFEACF3FB7F8948091A3029091A9
:10083000A402A091A502B091A60226B5A89B05C06E
:100840002F3F19F00196A11DB11D3FBFBA2FA92F4F
:10085000982F8827BC01CD01620F711D811D911D4C
:1008600042E0660F771F881F991F4A95D1F70895B8
:100870008F929F92AF92BF92CF92DF92EF92FF92B0
:100880004B015C010E9413046B017C010E94130464
:100890006C197D098E099F09683E73408105910599
:1008A000A8F321E0821A9108A108B10888EEC80EC9
:1008B00083E0D81EE11CF11C81149104A104B10451
:1008C00029F7FF90EF90DF90CF90BF90AF909F906F
:1008D0008F9008952FB7F89460919F027091A002B5
:1008E0008091A1029091A2022FBF0895CF92DF9232
:1008F000EF92FF920F931F93CF93DF93EC017A0156
:100900006901E881F9810190F081E02D0995E88184
:10091000F9810084F185E02D9801A601B701CE018F
:10092000DF91CF911F910F91FF90EF90DF90CF90CB
:1009300009946F927F928F929F92AF92BF92CF92C3
:10094000DF92EF92FF920F931F93CF93DF93CDB778
:10095000DEB729970FB6F894DEBF0FBECDBFDC011E
:100960001696ED91FC91319609F480C059013A0137
:100970006B018C01FE0131964F0185E0DF011D9274
:100980008A95E9F7D801ED91FC910488F589E02D6D
:10099000B401C80109957C01892B09F051C01F825F
:1009A0001E8219861886D801ED91FC910688F78978
:1009B000E02D9E01285F3F4FAE014A5F5F4FB401BB
:1009C000C80109957C01892BD9F5A114B10439F02E
:1009D00085E0F401D50101900D928A95E1F70E8131
:1009E0001F81C114D10479F0612F772767FD7A95B3
:1009F000072E000C880B990B0E942817F6016083C4
:100A00007183828393836114710489F08985682FCF
:100A1000782F770F770B072E000C880B990B0E940D
:100A20002817D3016D937D938D939C931397012B7E
:100A300039F488859985892B19F496E1E92EF12CF2
:100A4000C70129960FB6F894DEBF0FBECDBFDF9168
:100A5000CF911F910F91FF90EF90DF90CF90BF90BB
:100A6000AF909F908F907F906F90089587E1E82ED0
:100A7000F12CE6CF8F929F92AF92BF92CF92DF92EE
:100A8000EF92FF920F931F93CF93DF93EC018B01B3
:100A90006A017901E881F9810288F389E02DDB019F
:100AA0006C910995B82EE881F9810288F389E02DCF
:100AB000D80111966C91CE010995982EE881F981A3
:100AC0000288F389E02DD80112966C91CE01099528
:100AD000A82EE881F9810288F389E02DD8011396C8
:100AE0006C91CE010995882EE881F9810288F389FD
:100AF000E02DD80114966C91CE0109959B2D990D8E
:100B00009A0D980D891319C09A2D882DF60191839D
:100B100080839B2D892DD7018D939C9390E080E05D
:100B2000DF91CF911F910F91FF90EF90DF90CF90C9
:100B3000BF90AF909F908F90089585E190E0F0CFA7
:100B4000629570E09B013595279535952795237320
:100B5000660F771F660F771F6C7C262B30E0C9016C
:100B6000959587958575220F331F2A7A822B0895D4
:100B70003F924F925F926F927F928F929F92AF922D
:100B8000BF92CF92DF92EF92FF920F931F93CF937A
:100B9000DF93EC01162F7A0169010E9413044B01C7
:100BA0005C01312C111139843601660C771C660CFE
:100BB000771C85E0681A71082701440C551C440C09
:100BC000551C85E0481A510810E000E060E070E034
:100BD000CB012A813B814C815D812617370748076D
:100BE00059070CF10115110599F582E0E816F10499
:100BF0001CF0C2010197F1F70E94130468197909EA
:100C00008A099B09EA85F0E0EE0FFF1FE058FE4FCE
:100C1000A591B4912C910F5F1F4F39852323231188
:100C200005C097FFD6CF6FEF7FEFCB01DF91CF915C
:100C30001F910F91FF90EF90DF90CF90BF90AF90FA
:100C40009F908F907F906F905F904F903F9008950E
:100C500082E0C816D10484F2C301CCCFFC018285A6
:100C600090E00895FC01818590E00895CF92DF9295
:100C7000EF92FF920F931F93CF93DF93EC017A01D2
:100C80006901E881F9810190F081E02D0995E88101
:100C9000F9810480F581E02D9801A601B701CE010C
:100CA000DF91CF911F910F91FF90EF90DF90CF9048
:100CB0000994CF92DF92EF92FF920F931F93CF93FD
:100CC000DF93CDB7DEB728970FB6F894DEBF0FBE1F
:100CD000CDBFDC011696ED91FC91319609F440C030
:100CE0008A017B0119821A821B821C821D821E824C
:100CF0001F821886DC01ED91FC910084F185E02DC6
:100D0000AE014B5F5F4FBE016F5F7F4F09956C0176
:100D1000892BB1F4E114F10441F069817A818B816E
:100D20009C810E947519F70160830115110541F03E
:100D30006D817E818F8198850E947519D8016C9391
:100D4000C60128960FB6F894DEBF0FBECDBFDF9167
:100D5000CF911F910F91FF90EF90DF90CF9008956A
:100D600087E1C82ED12CECCF262F2D7F29F4FC0152
:100D7000608790E080E0089588E190E00895DC01CC
:100D800017967C936E931697FB01E855FE4FE491FE
:100D90001996EC9319976C567E4FFB0164911A9645
:100DA0006C9308952091A9023091AA02281739075F
:100DB00071F49091A7028091A802981741F0E091F8
:100DC000A702F0E0E25AFD4F808190E008958FEF96
:100DD0009FEF08950895EF92FF920F931F93CF9383
:100DE000DF93DC015C96ED90FC905D97E114F104DB
:100DF00079F481E090E013969C938E93129790E0A3
:100E000080E0DF91CF911F910F91FF90EF900895B7
:100E10005196ED91FC91529750968C915097982F46
:100E200090950FB75E962C915E97122F127021FD50
:100E30006095F8942081112319F1282B2083E70174
:100E40002197F1F728E0462F50E0308160FF1AC06B
:100E5000382B3083E7012197F1F7BA017595679533
:100E6000215089F7112381F08081892380830FBF6E
:100E70005C968D919C910197F1F781E090E0C1CF54
:100E80002923DCCF3923E5CF9081892BEFCF209127
:100E9000A9023091AA022817390771F48091A8029B
:100EA0002091A70290E0805C9F4F821B910960E433
:100EB00070E00E94C519089590E080E008952091A7
:100EC000A9023091AA0228173907B9F49091A70214
:100ED0008091A802981789F0E091A702F0E0E25A09
:100EE000FD4F80812091A70230E02F5F3F4F2F738D
:100EF00033272093A70290E008958FEF9FEF089586
:100F0000089590E080E00895CF93DF93EC0160E0D6
:100F10008E810E94A90361E08E810E94A90360E096
:100F20008E810E94A9038BE891E00197F1F7DF9190
:100F3000CF910895CF92DF92EF92FF920F931F937C
:100F4000CF93DF936C017C0187E0E80EF11CD0E0C9
:100F5000C0E0062F10E0B8010C2E02C07595679511
:100F60000A94E2F76170F70181917F010E94A90361
:100F70002196C430D10579F7C601DF91CF911F9139
:100F80000F91FF90EF90DF90CF900C948407CF9259
:100F9000DF92EF92FF920F931F93CF93DF93EC01B9
:100FA000F62E642F8C810E94A9038D818F3F19F04A
:100FB00060E00E94A9030F2D10E08F8584FF25C0FB
:100FC0006E0187E0C80ED11CF12CE12CB8010E2C6B
:100FD00002C0759567950A94E2F76170F6018191F8
:100FE0006F010E94A903FFEFEF1AFF0A88E0E816DD
:100FF000F10461F7CE01DF91CF911F910F91FF9026
:10100000EF90DF90CF900C948407B80184E0759541
:1010100067958A95E1F7CE010E949A076F2DCE0160
:10102000DF91CF911F910F91FF90EF90DF90CF90C4
:101030000C949A0740E0682F85EE93E00C94C70764
:1010400081E00E941A088BE39FE10197F1F7089570
:10105000CF93DF93823029F49091F40398609093BA
:10106000F4038093F8031092F90380E48093FA0369
:1010700080E18093FB0380E58093FC0361E0809135
:10108000E9030E94D7038091EA038F3F19F061E0E2
:101090000E94D70361E08091EB030E94D703C5EE65
:1010A000D3E09E01255E33408091F40384FD0BC0A4
:1010B00084E090E021962817390744F461E08E819E
:1010C0000E94D703EECF88E090E0F4CF8BE39DE061
:1010D0000197F1F760E08091E9030E94A90360E0C5
:1010E0008091EB030E94A9038091EA038F3F19F0DE
:1010F00060E00E94A9038091F40384FD34C063E0A2
:1011000085EE93E00E949A07CBE4D6E4CE010197E6
:10111000F1F763E085EE93E00E949A072197F1F7DB
:1011200063E085EE93E00E949A0783E592E00197E1
:10113000F1F762E085EE93E00E949A078091F40354
:1011400080620E941A0884E08093F5038CE00E947C
:101150001A080E94200882E08093F60386E0DF915F
:10116000CF910C941A0880620E941A088BE496E4CE
:101170000197F1F78091F40380620E941A0883E5D9
:1011800092E00197F1F78091F40380620E941A08BF
:10119000D5CF9091F803891710F08FEF890FE82FC2
:1011A000F0E0EB51FC4F848980680C941A0841E010
:1011B0000E94C70781E090E00895FB0101900020A4
:1011C000E9F73197AF01461B570BDC01ED91FC911C
:1011D0000280F381E02D09948F929F92AF92BF928B
:1011E000EF92FF920F931F93CF93DF93CDB7DEB7AC
:1011F000A1970FB6F894DEBF0FBECDBF7C01FA01F8
:10120000CB0119A2223008F42AE08E010F5D1F4F96
:10121000822E912CB12CA12CBF01A50194010E941A
:10122000D919F901CA016A300CF5605DD8016E93D5
:101230008D01232B242B252B79F790E080E010974C
:1012400021F0BD01C7010E94DD08A1960FB6F894F8
:10125000DEBF0FBECDBFDF91CF911F910F91FF90E9
:10126000EF90BF90AF909F908F900895695CDECF14
:10127000AC01990F660B770B2AE08BEA92E00C9495
:10128000EC08CF93DF93AC0170E060E02AE08BEADA
:1012900092E00E94EC08EC016EE671E08BEA92E0CD
:1012A0000E94DD088C0F9D1FDF91CF9108954F9212
:1012B0005F926F927F928F929F92AF92BF92CF92E6
:1012C000DF92EF92FF921F93CF93DF93EC016A01BD
:1012D0007B01AB019601CB01B6010E94B01961E719
:1012E00071E0811126C046015701E894B7F82FEF4D
:1012F0003FEF4FE75FE7C501B4010E94B0198111CC
:101300000CC02FEF3FEF4FE75FE7C501B4010E942C
:10131000211765E771E0181664F02FEF3FEF4FE7F4
:101320005FE4C701B6010E94AB191816A4F469E77F
:1013300071E0CE01DF91CF911F91FF90EF90DF9090
:10134000CF90BF90AF909F908F907F906F905F9065
:101350004F900C94DD082FEF3FEF4FE75FECC70194
:10136000B6010E94211787FDE2CF20E030E0A901FD
:10137000C701B6010E942117B12CA12C87FF09C01B
:101380006DE2CE010E9443025C01F7FAF094F7F897
:10139000F0942CEB37E346E055E3C701B6010E9419
:1013A00097182B013C010E947C196B017C010E9463
:1013B00026179B01AC01C301B2010E9496182B01B4
:1013C0003C012AE0B701A601CE010E94EC087C0195
:1013D000EA0CFB1C6EE2CE010E944302E80EF91EED
:1013E00017E0115021F120E030E040E251E4C30168
:1013F000B2010E9487172B013C010E947C194B010E
:10140000B12CA12C2AE0B501A401CE010E94EC0868
:10141000E80EF91EC501B4010E9426179B01AC011C
:10142000C301B2010E9496182B013C01DACFC7011B
:10143000DF91CF911F91FF90EF90DF90CF90BF9001
:10144000AF909F908F907F906F905F904F90089596
:101450000C94DD080E94FF1B0F931F93CF93DF9323
:10146000EC0188819981009759F02A813B812617E8
:10147000370730F081E0DF91CF911F910F910895F0
:101480008B016F5F7F4F0E94421B009759F0998339
:1014900088831B830A832C813D81232B59F7FC0110
:1014A0001082E8CF80E0E7CFCF93DF93EC01888113
:1014B0009981009711F00E94B91A198218821D8231
:1014C0001C821B821A82DF91CF9108950F931F9384
:1014D000CF93DF93EC010C811D810F5F1F4FB8018B
:1014E0000E942C0A882391F0288139818C819D816A
:1014F0006DE771E0820F931F0E940D1C1D830C830A
:10150000CE01DF91CF911F910F910895CE010E94DE
:10151000540AF6CFEF92FF920F931F93CF93DF936E
:10152000EC017B01198218821B821A821D821C82A7
:10153000FB0101900020E9F731978F01061B170B83
:10154000B8010E942C0A811109C0CE01DF91CF9110
:101550001F910F91FF90EF900C94540A1D830C8300
:10156000B70188819981DF91CF911F910F91FF90F1
:10157000EF900C940D1CCF92DF92EF92FF920F939D
:101580001F93CF93DF93CDB7DEB7A1970FB6F89433
:10159000DEBF0FBECDBF7C01CB01BA01F7011182C6
:1015A000108213821282158214828E010F5F1F4FE8
:1015B00026E048E00E94A6146C01009771F0FC013F
:1015C00001900020E9F731978F01081B190BB80132
:1015D000C7010E942C0A811112C0C7010E94540A3F
:1015E000A1960FB6F894DEBF0FBECDBFDF91CF91AD
:1015F0001F910F91FF90EF90DF90CF900895F7012A
:1016000015830483B601808191810E940D1CE8CF6F
:10161000EF92FF920F931F93CF93DF93EC01FB01A7
:10162000E080F180E114F10411F1048115810115CC
:101630001105A9F08C819D81080F191FB801CE01F9
:101640000E942C0A882399F0288139818C819D8100
:10165000B701820F931F0E940D1C1D830C83CE01C6
:10166000DF91CF911F910F91FF90EF900895CE01E0
:101670000E94540AF4CFFC0180819181009711F0FF
:101680000C94B91A08954F925F926F927F928F9245
:101690009F92AF92BF92EF92FF920F931F93CF93BF
:1016A000DF93EC017B0185E0FB0111928A95E9F75C
:1016B00061E08E810E94D70360E08E810E94A903C1
:1016C00064E170E080E090E00E94380461E08E8187
:1016D0000E94A90368858E810E94D7038FE590E060
:1016E0000197F1F7E881F9810088F189E02D26E082
:1016F00030E04AE050E060E0CE0109956E317105BE
:1017000081059105ACF4982F872F762F66276061AD
:10171000CB01DF91CF911F910F91FF90EF90BF9080
:10172000AF909F908F907F906F905F904F900895B3
:10173000E881F9810088F189E02D26E030E04AE077
:1017400050E061E0CE010995623371058105910594
:1017500034F4982F872F762F66276161D9CF10E058
:1017600000E0812C912C54018394E881F981008858
:10177000F189E02D26E030E04AE050E060E0CE0163
:101780000995683171058105910534F4982F872FEB
:10179000762F66276261BCCFE881F9810088F189E4
:1017A000E02D26E030E04AE050E061E0CE0109950E
:1017B0006B3071058105910534F4982F872F762FB2
:1017C00066276361A5CFF80133E0F595E7953A9573
:1017D000E1F7EE0DFF1D9801277033272401350135
:1017E00004C0440C551C661C771C2A95D2F7208136
:1017F0006932710581059105FCF0422A40820F5F34
:101800001F4F0832110509F0B0CFE881F981008837
:10181000F189E02D26E030E04AE050E060E0CE01C2
:10182000099568317105810591054CF4982F872F32
:10183000762F662764616CCF40944222DFCF70E040
:1018400060E066CF1F920F920FB60F9211242F9374
:101850003F934F935F936F937F938F939F93AF9338
:10186000BF93EF93FF938BEA92E00E94C802FF912F
:10187000EF91BF91AF919F918F917F916F915F9108
:101880004F913F912F910F900FBE0F901F90189581
:101890001F920F920FB60F9211242F938F939F9345
:1018A000EF93FF93E091BB02F091BC028081E09145
:1018B000C102F091C20282FD1BC090818091C402DE
:1018C0008F5F8F732091C502821741F0E091C402AF
:1018D000F0E0E555FD4F958F8093C402FF91EF91A5
:1018E0009F918F912F910F900FBE0F901F90189581
:1018F0008081F4CF1F920F920FB60F9211242F9375
:101900003F938F939F93AF93BF9380919F0290914A
:10191000A002A091A102B091A20230919E0223E008
:10192000230F2D3758F50196A11DB11D20939E025E
:1019300080939F029093A002A093A102B093A20271
:101940008091A3029091A402A091A502B091A60259
:101950000196A11DB11D8093A3029093A402A093B0
:10196000A502B093A602BF91AF919F918F913F9135
:101970002F910F900FBE0F901F90189526E8230F00
:101980000296A11DB11DD2CF1F920F920FB60F92DA
:1019900011242F933F934F935F936F937F938F9374
:1019A0009F93AF93BF93EF93FF93E091A902F091C0
:1019B000AA02309749F0A685B7858585968D91FF57
:1019C00014C09C918923A1F4FF91EF91BF91AF9135
:1019D0009F918F917F916F915F914F913F912F9147
:1019E0000F900FBE0F901F9018959C91892361F75F
:1019F000A389B4899C918589809589238C93868954
:101A000097890197F1F7608D718DA685B78555850A
:101A100038E020E0CB010197F1F7822F90E0959517
:101A20008795282F4C91452309F02068315091F774
:101A3000868D81FD20958091A80290E001968F739C
:101A400099273091A702381799F0A091A802B0E029
:101A5000A25ABD4F2C938093A802828D938D01973B
:101A6000F1F7A389B4898C919589892B8C93ACCF9C
:101A7000868D8160868FF1CFCF92DF92EF92FF92B9
:101A8000CF93DF931092AE021092AD0298EEC92E62
:101A900093E0D92EE12CF12CC092AF02D092B0028B
:101AA000E092B102F092B2028AE091E09093AC022F
:101AB0008093AB0285EC90E09093B8028093B702DC
:101AC00084EC90E09093BA028093B90280EC90E0AD
:101AD0009093BC028093BB0281EC90E09093BE0295
:101AE0008093BD0282EC90E09093C0028093BF028D
:101AF00086EC90E09093C2028093C1021092C402DF
:101B00001092C5021092C6021092C7021092E8030A
:101B10001092E70386E691E09093E6038093E50355
:101B200087E08093E903CFEFC093EA0386E08093D8
:101B3000EB0385E08093EC0384E08093ED0383E086
:101B40008093EE03D2E0D093EF031092F003109253
:101B5000F1031092F2031092F3031092F40381E068
:101B60000E9428084FEF5FEFBA0140937203509331
:101B70007303609374037093750310927A03109249
:101B80007B0310927C0310927D038FEF99ECAAE9FE
:101B9000BBE38093820390938303A0938403B09369
:101BA000850380938A0390938B03A0938C03B09357
:101BB0008D038093920390939303A0939403B09327
:101BC000950380939A0390939B03A0939C03B093F7
:101BD0009D038093A2039093A303A093A403B093C7
:101BE000A5034093AA035093AB036093AC03709397
:101BF000AD038FEF90E09093B3038093B2034093D3
:101C0000B6035093B7036093B8037093B90340933E
:101C1000BE035093BF036093C0037093C10310923F
:101C2000C6031092C703D093D7031092D803109223
:101C3000D9031092DA031092DB031092DC031092A6
:101C4000DD031092DE031092E0031092DF03109286
:101C5000E2031092E1031092C8038EE291E09093A8
:101C600068038093670380E291EAA7E0B0E0809385
:101C7000690390936A03A0936B03B0936C038FEF97
:101C80009FEF90936E0380936D0310926F03C09348
:101C90007003C09371036AE070E087E693E00E94EE
:101CA000BF068AE491E090936803809367031092E3
:101CB0004B0310924A03C0924C03D0924D03E09222
:101CC0004E03F0924F038CE191E09093490380938F
:101CD000480310925F0310925E031092610310920A
:101CE00060031092630310926203109265031092D6
:101CF0006403609166036E7F6D7F609366036695F3
:101D0000617081E068278BE00E94A90361E08BE0AD
:101D10000E94D703E3EBF1E0E491E0935803EFE98D
:101D2000F1E0E491F0E0EE0FFF1FE657FE4F8591E2
:101D3000949190935A038093590360E087E00E9446
:101D4000D7038091660381FD04C061E087E00E94B3
:101D5000A90387E080935403EFEAF1E0E491E09374
:101D60005503EBE9F1E0E491F0E0EE0FFF1FE058DE
:101D7000FE4F859194919093570380935603DF9182
:101D8000CF91FF90EF90DF90CF900895CF93DF93A6
:101D9000CDB7DEB768970FB6F894DEBF0FBECDBFE4
:101DA000789484B5826084BD84B5816084BD85B536
:101DB000826085BD85B5816085BD80916E00816042
:101DC00080936E00109281008091810082608093E8
:101DD00081008091810081608093810080918000EA
:101DE0008160809380008091B10084608093B10015
:101DF0008091B00081608093B00080917A0084600F
:101E000080937A0080917A00826080937A0080913A
:101E10007A00816080937A0080917A008068809354
:101E20007A001092C1000E940A011092630310927E
:101E30006203109261031092600310925F0310928C
:101E40005E038DE991E09093650380936403909124
:101E50005403963108F047C02DEB30E030935F0318
:101E600020935E032BE931E03093610320936003FC
:101E70002CE231E0309363032093620320916800E9
:101E800084E0983048F031E09E3008F430E081E0A2
:101E900001C0880F3A95EAF7822B809368002DE6FF
:101EA00030E0983050F02BE630E09E3030F02CE6F9
:101EB00030E0963110F030E020E030935C03209366
:101EC0005B03292F30E0983008F011C281E001C097
:101ED000880F9A95EAF780935D038091640390914F
:101EE00065030197F1F78091620390916303892B59
:101EF00049F1E091A902F091AA0223E0E834F20747
:101F000009F1309739F0A389B4899C91858980952E
:101F100089238C93809166038E7F80936603109251
:101F2000A8021092A70288E493E09093AA028093FB
:101F3000A902E0915B03F0915C03808190915D03C5
:101F4000892B808382E00E94280860E088E00E945C
:101F5000D70368EE73E080E090E00E94380460E010
:101F60008EE00E94D70361E089E00E94D70380E001
:101F70000E94C9086FE771E085EE93E00E94280A8D
:101F800081E00E94C90860E971E085EE93E00E945B
:101F9000280A68EE73E080E090E00E9438040E9416
:101FA00020080E940A01CC24C39402E088E00E9429
:101FB00080037C018EE00E948003019709F0A4C198
:101FC00061E089E00E94A90380E00E94C90861EAFB
:101FD00071E085EE93E00E94280A81E00E94C90822
:101FE00062EB71E085EE93E00E94280A64E670E0FF
:101FF00080E090E00E9438040E946A044B015C017A
:10200000D12C0E946A04681979098A099B09683EE3
:1020100073408105910508F45AC2EA94EF2809F04B
:1020200029C1DD2009F426C10E9420088090820386
:1020300090908303A0908403B090850340908A031E
:1020400050908B0360908C0370908D038091BE0341
:102050009091BF03A091C003B091C1038F3F9F4FE8
:10206000AF4FBF4F11F00E946A04FFEF8F16F9ECDB
:102070009F06FAE9AF06FBE3BF0609F421C4C501D8
:10208000B4010E94281720E034E244E759E40E949A
:1020900003194B015C01C301B2010E94281720E023
:1020A00034E244E759E40E9403192B013C016DEC32
:1020B00071E088E493E00E94280A80E00E94C90849
:1020C00068ED71E085EE93E00E94280A20E030E0A0
:1020D0004AE754E4C501B4010E942117811103C0ED
:1020E000812C912C5401B501A40185EE93E00E944E
:1020F000570981E00E94C9086EED71E085EE93E01A
:102100000E94280A20E030E04AE754E4C301B2010B
:102110000E942117811103C0412C512C3201B301BF
:10212000A20185EE93E00E94570968EE73E080E01B
:1021300090E00E9438040E94200860E971E080E08D
:1021400090E00E94380464EE71E088E493E00E941D
:10215000DD086EE671E088E493E00E94DD0860E04F
:1021600072E088E493E00E94280AB501A40188E4A3
:1021700093E00E9457096CE072E088E493E00E94CB
:10218000280AB301A20188E493E00E94570968EC91
:1021900070E080E090E00E9438046AE172E0CE01D5
:1021A00001960E948A0AB301A201CE0107960E94FD
:1021B000BB0AB501A401CE010D960E94BB0A6EE1D7
:1021C00072E0CE0143960E948A0ABE01635F7F4F90
:1021D000CE0143960E94080B0E94660ABE01695F09
:1021E0007F4F0E94080B0E94660ABE016F5F7F4FFF
:1021F0000E94080BFC01448155816081718188E453
:1022000093E00E944A026EE671E088E493E00E9447
:10221000DD08CE0143960E943B0BCE010D960E9435
:102220003B0BCE0107960E943B0BCE0101960E940C
:102230003B0B68EC70E080E090E00E9438046AE1BB
:1022400088E493E00E9443026EE671E088E493E044
:102250000E94DD0868EC70E080E090E00E943804A5
:102260006EE671E088E493E00E94DD0890E080E093
:102270000E94410990E080E00E9441091F8219827A
:1022800030E020E0AE014F5F5F4FBE01695F7F4FDE
:1022900087E693E00E9459067C01892B09F419C353
:1022A0006CE372E08BEA92E00E94280AC70199274A
:1022B0000E9438096DE771E08BEA92E00E94280ADB
:1022C0008F2D90E00E94410968EE73E080E090E07D
:1022D0000E94380480E090E0892B09F467CE0E94C8
:1022E000B402882309F461CE0E9400005ECE9E30C5
:1022F00040F42850310981E001C0880F2A95EAF79F
:10230000EACD2E503109F7CF0E94200860E089E025
:102310000E94A90371CE1A3209F405C11C3209F0DA
:10232000BBC28091C60381278093C603FCC09091F5
:10233000D803F0E0E853FC4F10827090C703772079
:1023400009F46AC12091C803822F022E000C990B58
:102350003FEB320F363008F0EBC0C7978295807F95
:102360009091C903292F092E000C330B4FEB490F15
:10237000463008F0E5C027533109820F9091C6031B
:10238000891340C17090DA03772009F4CFC080919F
:10239000DF039091E00301969093E0038093DF03C5
:1023A0008091BA039091BB03A091BC03B091BD038F
:1023B0008093B6039093B703A093B803B093B90387
:1023C0008091C2039091C303A091C403B091C5034F
:1023D0008093BE039093BF03A093C003B093C10347
:1023E0008091D703882309F4B4C0813009F060C01C
:1023F0008091760390917703A0917803B09179034F
:102400008093720390937303A0937403B093750346
:1024100080917E0390917F03A0918003B09181030E
:1024200080937A0390937B03A0937C03B0937D0306
:102430008091860390918703A0918803B0918903CE
:102440008093820390938303A0938403B0938503C6
:1024500080918E0390918F03A0919003B09191038E
:1024600080938A0390938B03A0938C03B0938D0386
:1024700080919E0390919F03A091A003B091A1032E
:1024800080939A0390939B03A0939C03B0939D0326
:102490008091A6039091A703A091A803B091A903EE
:1024A0008093A2039093A303A093A403B093A503E6
:1024B0008091D8038F5F8093D8031092D90381E075
:1024C0001A3209F080E08093C7037110D72C8BEA91
:1024D00092E00E94A802892B09F493CD8BEA92E046
:1024E0000E948602182F8091DB039091DC03A0915B
:1024F000DD03B091DE030196A11DB11D8093DB03C6
:102500009093DC03A093DD03B093DE03143209F44F
:10251000B6C1E091D90315320CF0FDCE1A3019F096
:102520001D3009F0B9C1EF3008F401CF712CC0CFD4
:102530002156263018F48755910910CFC0970ECF39
:102540009156963018F42755310917CF2053310989
:1025500014CF8091960390919703A0919803B09126
:1025600099038093920390939303A0939403B09361
:1025700095038091760390917703A0917803B091B1
:1025800079038093720390937303A0937403B093C1
:1025900075038091860390918703A0918803B09181
:1025A00089038093820390938303A0938403B09361
:1025B000850380918E0390918F03A0919003B09139
:1025C000910380938A0390938B03A0938C03B09321
:1025D0008D038091B4039091B5039093B3038093DE
:1025E000B2038091AE039091AF03A091B003B0917C
:1025F000B1038093AA039093AB03A093AC03B09371
:10260000AD0356CF8091E1039091E2030196909340
:10261000E2038093E1038ACF91111CC0A8ECB3E0E0
:1026200041EC51E09D01F90181919F01882309F45A
:102630006BC1FA019191AF018917A9F3E7ECF1E0C1
:102640008D91882309F463C191918917C9F300938F
:10265000D7032ECFE091D703E23009F467CF809102
:10266000C803882309F462CF20E2E29FF00111241D
:10267000E92B3197E932F10508F01ACFEE5BFC4EF9
:102680000C94FB198813A313B813D313DE13181477
:102690001F14291434145812581258125812581270
:1026A00058125812581258125812581258125812DA
:1026B00058125812581258125812581258125812CA
:1026C0005812581288139D13A313B813D313DE1393
:1026D000F91304146B13E8ECF3E020E030E0A901F7
:1026E000619080ED860D8A3008F099C0AAE0B0E0D4
:1026F0000E944518262D660C330B440B550B260FF4
:10270000371F481F591F2053310941095109E8CF8C
:102710000E9432016093760370937703809378036D
:10272000909379030E946A046093BA037093BB0389
:102730008093BC039093BD03BBCE91E0813409F438
:102740007BC090E079C00E94A401609386037093DF
:10275000870380938803909389030E946A0460939F
:10276000C2037093C3038093C4039093C503A0CEA8
:10277000833509F0DBCE8091860390918703A09189
:102780008803B0918903B095A095909581959F4F4E
:10279000AF4FBF4F8093860390938703A093880326
:1027A000B093890385CE0E94A40160938E03709339
:1027B0008F0380939003909391037ACE873509F02D
:1027C000B5CE80918E0390918F03A0919003B0912C
:1027D0009103B095A095909581959F4FAF4FBF4FB6
:1027E00080938E0390938F03A0939003B0939103F3
:1027F0005FCE0E94320160939E0370939F0380938B
:10280000A0039093A10354CE0E9432016093A603CB
:102810007093A7038093A8039093A90349CE2093B4
:102820007E0330937F03409380035093810340CE17
:1028300091E081330CF485CF9093DA0339CE88ECA4
:1028400093E00E94C41499279093B5038093B40336
:102850002FCE0E9432016093AE037093AF0380933A
:10286000B0039093B10324CE0E943201609396038B
:1028700070939703809398039093990319CE1092C5
:10288000D9031092D8031092C6030093D703109275
:10289000C7031092DA031BCEEE3040F481E08E0FB6
:1028A0008093D903F0E0E853FC4F10838091C70375
:1028B00081110DCE8091C60318271093C60307CE51
:1028C000812C912C8AE7A82E84E4B82E24013501AE
:1028D000EECB8F8190E00E94380964E572E08BEACC
:1028E00092E00E94280A898190E00E9438096AE5F6
:1028F00072E08BEA92E00E94DD086EE671E08BEAFE
:1029000092E00E94DD08E6CCC092D703D1CD1092B0
:10291000D703CECD8CE191E0909349038093480397
:102920008091A9029091AA028854934071F4E09199
:102930005B03F0915C03908180915D038095892316
:1029400080831092AA021092A9020895EF920F9329
:102950001F93CF93DF93E80134E047FD34E1042E69
:10296000000C550B57FF03C0519541955109E32EBB
:10297000022F242FAE010E94EA14CE01DF91CF91E5
:102980001F910F91EF900895FC0188279927E894F3
:1029900021912032E9F3293010F02E30C8F32B3288
:1029A00041F02D3239F4689404C00E94E214820F81
:1029B000911D219120532A30C0F31EF490958195EA
:1029C0009F4F08957AE0979F902D879F802D910DBE
:1029D00011240895A9E0B0E0E0EFF4E10C9456185A
:1029E0006A01F22EB02E102FFBE3AF2EA01608F4D2
:1029F0001BE31F5F012F27E0AE014F5F5F4F0E9477
:102A00004916BC018981982F9970913009F43FC013
:102A10009BE2E1FC04C09E2D9170E0FC3AC05E2D6B
:102A20005071E82FE87083FF46C084E0911101C027
:102A300083E0EF2DE81B8F1508F0E0E0D6018E2F24
:102A400020E2552351F1992329F0D6019C93C60128
:102A500001966C0196012D5F3F4FE2FE24C08EE48B
:102A6000D6018C9391E411969C93119712968C93B6
:102A7000D9018E2F90E281111BC0E20FF32FF11DBF
:102A800010828EEF9FEF2996ECE00C9472189DE275
:102A9000C6CF90E2C4CF2D9381508111FCCFCE0ED2
:102AA000D11CE0E0D0CF8EE6D6018C9391E6DBCF4F
:102AB0009D938150E0CF482F447082FF3DC084E059
:102AC000911101C083E08F1510F4EF2DE81BD601A2
:102AD0008E2F20E2552309F1992329F0D6019C93EA
:102AE000C60101966C0196012D5F3F4FE2FE1BC0AF
:102AF00089E4D6018C938EE411968C93119786E429
:102B000012968C93D9018E2F90E2882309F4B5CFC9
:102B10009D938150FACF2D9381508111FCCFCE0E21
:102B2000D11CE0E0D9CF89E6D6018C938EE61196D0
:102B30008C93119786E6E4CF9B0177FF02C030E0CB
:102B400020E0A1E0B0E0911102C0B0E0A0E0F90106
:102B50003196AE0FBF1F8B2C912CBB2009F461C0A6
:102B60005401EFEFAE1ABE0AAA0DBB1DFA161B06E2
:102B700019F014F04F2D4A1B511188C0E3FC59C0C5
:102B80007601A42FB0E2A1114FC0C40ED11C99232D
:102B900009F45BC040E0D6011196F60190836D0107
:102BA000552309F448C0012F060F9A81582F507100
:102BB00084FF03C0913309F4015010160CF047C094
:102BC000093008F008E0EEE2FE2E5B01A01AB10821
:102BD00085019194819491082F3F320729F4D60101
:102BE000FC92F60131966F016217730794F1021798
:102BF00013077CF5DB01A21BB30BAA24A394B12C11
:102C0000AC0EBD1EAA0DBB1D11968C912150310931
:102C1000D601119628153905F4F0F60180836D016F
:102C2000DBCFB12CA12CA0CFF701B1937F01A15034
:102C3000AACF9111B0CFD601942F50E302C05D937B
:102C400091509111FCCFC40ED11C40E0ACCF01E0FB
:102C5000BACF80E3DBCF6217730731F4963388F481
:102C6000953311F4552369F0F6018083FD01842F1B
:102C700090E2811108C0A40FB11D1C9290E080E089
:102C800002CF81E3F1CF91938150F3CF911183CFA4
:102C90008ACF283008F027E03327DA01990F311D59
:102CA00087FD916000966105710539F432602E5FF1
:102CB0003D9330E32A95E1F708959F3F30F0803847
:102CC0007105610509F03C5F3C5F3D93913008F070
:102CD0008068911DDF93CF931F930F93FF92EF9224
:102CE000192F987F9695E92F96959695E90FFF27CE
:102CF000EE53FF4F99273327EE24FF24A701E70166
:102D000005900894079428F4360FE71EF81E491F13
:102D1000511D660F771F881F991F0694A1F7059014
:102D2000079428F4E70EF81E491F561FC11D770FA0
:102D3000881F991F661F0694A1F70590079428F431
:102D4000F80E491F561FC71FD11D880F991F661FF8
:102D5000771F0694A1F70590079420F4490F561F9A
:102D6000C71FD81F990F661F771F881F0694A9F7E2
:102D700084911095177041F0D695C7955795479552
:102D8000F794E7941A95C1F7E8E6F0E06894159097
:102D9000159135916591959105907FE27395E118B4
:102DA000F10A430B560BC90BD009C0F7E10CF11E19
:102DB000431F561FC91FD01D7EF4703311F48A952E
:102DC000E6CFE894015030F0080F0AF4002702170C
:102DD00008F4202F2395022F7A3328F079E37D938E
:102DE0002A95E9F710C07D932A9589F60694979560
:102DF0006795379517951794E118F10A430B560B11
:102E0000C90BD00998F023957E9173957A3308F019
:102E100070E37C932013B8F77E9170617D9330F05E
:102E2000839571E37D9370E32A95E1F71124EF9088
:102E3000FF900F911F91CF91DF91992787FD90957A
:102E400008950E94631708F481E00895E89409C08A
:102E500097FB3EF490958095709561957F4F8F4FCD
:102E60009F4F9923A9F0F92F96E9BB279395F695E3
:102E7000879577956795B795F111F8CFFAF4BB0F61
:102E800011F460FF1BC06F5F7F4F8F4F9F4F16C0C5
:102E9000882311F096E911C0772321F09EE8872F4F
:102EA000762F05C0662371F096E8862F70E060E00B
:102EB0002AF09A95660F771F881FDAF7880F969584
:102EC000879597F90895990F0008550FAA0BE0E828
:102ED000FEEF16161706E807F907C0F012161306DC
:102EE000E407F50798F0621B730B840B950B39F41C
:102EF0000A2661F0232B242B252B21F408950A2682
:102F000009F4A140A6958FEF811D811D08950E94AF
:102F10009A170C940B180E94FD1738F00E940418A1
:102F200020F0952311F00C94F4170C94FA17112447
:102F30000C943F180E941C1870F3959FC1F3950FD5
:102F400050E0551F629FF001729FBB27F00DB11D2D
:102F5000639FAA27F00DB11DAA1F649F6627B00DBD
:102F6000A11D661F829F2227B00DA11D621F739FA6
:102F7000B00DA11D621F839FA00D611D221F749FB4
:102F80003327A00D611D231F849F600D211D822FFB
:102F9000762F6A2F11249F5750409AF0F1F0882322
:102FA0004AF0EE0FFF1FBB1F661F771F881F91504F
:102FB0005040A9F79E3F510580F00C94F4170C94F3
:102FC0003F185F3FE4F3983ED4F386957795679575
:102FD000B795F795E7959F5FC1F7FE2B880F911D79
:102FE0009695879597F9089597F99F6780E870E01F
:102FF00060E008959FEF80EC089500240A9416166F
:10300000170618060906089500240A9412161306D6
:10301000140605060895092E0394000C11F4882364
:1030200052F0BB0F40F4BF2B11F460FF04C06F5F80
:103030007F4F8F4F9F4F089557FD9058440F551F56
:1030400059F05F3F71F04795880F97FB991F61F02A
:103050009F3F79F087950895121613061406551FA1
:10306000F2CF4695F1DF08C0161617061806991F0D
:10307000F1CF86957105610508940895E894BB2702
:1030800066277727CB0197F908950E948718A59F97
:10309000900DB49F900DA49F800D911D1124089553
:1030A0002F923F924F925F926F927F928F929F9258
:1030B000AF92BF92CF92DF92EF92FF920F931F9346
:1030C000CF93DF93CDB7DEB7CA1BDB0B0FB6F894F7
:1030D000DEBF0FBECDBF09942A88398848885F8437
:1030E0006E847D848C849B84AA84B984C884DF80A8
:1030F000EE80FD800C811B81AA81B981CE0FD11D8C
:103100000FB6F894DEBF0FBECDBFED010895A29FAC
:10311000B001B39FC001A39F700D811D1124911DAB
:10312000B29F700D811D1124911D08955058BB2729
:10313000AA270E94AE180C940B180E94FD1738F0B5
:103140000E94041820F039F49F3F19F426F40C94DF
:10315000FA170EF4E095E7FB0C94F417E92F0E94A0
:103160001C1858F3BA17620773078407950720F0F5
:1031700079F4A6F50C943E180EF4E0950B2EBA2FB8
:10318000A02D0B01B90190010C01CA01A00111246D
:10319000FF27591B99F0593F50F4503E68F11A1619
:1031A000F040A22F232F342F4427585FF3CF4695AA
:1031B00037952795A795F0405395C9F77EF41F16CC
:1031C000BA0B620B730B840BBAF09150A1F0FF0F96
:1031D000BB1F661F771F881FC2F70EC0BA0F621F82
:1031E000731F841F48F4879577956795B795F79572
:1031F0009E3F08F0B0CF9395880F08F09927EE0F07
:103200009795879508950E9417190C940B180E94A2
:10321000041858F00E94FD1740F029F45F3F29F090
:103220000C94F41751110C943F180C94FA170E9447
:103230001C1868F39923B1F3552391F3951B550B93
:10324000BB27AA2762177307840738F09F5F5F4F79
:10325000220F331F441FAA1FA9F335D00E2E3AF0B8
:10326000E0E832D091505040E695001CCAF72BD0D0
:10327000FE2F29D0660F771F881FBB1F2617370721
:103280004807AB07B0E809F0BB0B802DBF01FF2753
:1032900093585F4F3AF09E3F510578F00C94F41725
:1032A0000C943F185F3FE4F3983ED4F386957795EE
:1032B0006795B795F7959F5FC9F7880F911D96950C
:1032C000879597F90895E1E0660F771F881FBB1F68
:1032D000621773078407BA0720F0621B730B840B15
:1032E000BA0BEE1F88F7E09508950E947C19689448
:1032F000B1110C943F1808950E94241888F09F572C
:1033000098F0B92F9927B751B0F0E1F0660F771F09
:10331000881F991F1AF0BA95C9F714C0B13091F0FF
:103320000E943E18B1E008950C943E18672F782F44
:103330008827B85F39F0B93FCCF3869577956795C4
:10334000B395D9F73EF490958095709561957F4F30
:103350008F4F9F4F08950E94631708F48FEF0895D1
:103360000E946317880B990B0895DB018F939F933D
:103370000E944518BF91AF91A29F800D911DA39F00
:10338000900DB29F900D1124089597FB072E16F40F
:10339000009407D077FD09D00E94091A07FC05D0D8
:1033A0003EF4909581959F4F0895709561957F4F5C
:1033B0000895A1E21A2EAA1BBB1BFD010DC0AA1F76
:1033C000BB1FEE1FFF1FA217B307E407F50720F08E
:1033D000A21BB30BE40BF50B661F771F881F991F09
:1033E0001A9469F760957095809590959B01AC0152
:1033F000BD01CF010895EE0FFF1F0590F491E02D60
:103400000994B7FF0C9445180E944518821B930B32
:103410000895AA1BBB1B51E107C0AA1FBB1FA6171B
:10342000B70710F0A61BB70B881F991F5A95A9F76D
:1034300080959095BC01CD0108950F931F93CF9374
:10344000DF938230910510F482E090E0E091FF0379
:10345000F091000430E020E0B0E0A0E0309799F473
:103460002115310509F44AC0281B390B24303105D8
:10347000D8F58A819B816115710589F1FB019383E0
:103480008283FE0111C0408151810281138148175E
:103490005907E0F04817590799F4109761F0129610
:1034A0000C93129713961C933296CF01DF91CF9114
:1034B0001F910F9108950093FF0310930004F4CF20
:1034C0002115310551F04217530738F0A901DB01EE
:1034D0009A01BD01DF01F801C1CFEF01F9CF90934F
:1034E00000048093FF03CDCFFE01E20FF31F819311
:1034F00091932250310939832883D7CF2091FD033E
:103500003091FE03232B41F42091020130910301FD
:103510003093FE032093FD032091000130910101BF
:103520002115310541F42DB73EB74091040150916A
:103530000501241B350BE091FD03F091FE03E2171A
:10354000F307A0F42E1B3F0B2817390778F0AC01C6
:103550004E5F5F4F2417350748F04E0F5F1F5093A3
:10356000FE034093FD03819391939FCFF0E0E0E051
:103570009CCFCF93DF930097E9F0FC013297138241
:103580001282A091FF03B0910004ED0130E020E031
:103590001097A1F420813181820F931F2091FD03A8
:1035A0003091FE032817390709F061C0F093FE033C
:1035B000E093FD03DF91CF910895EA01CE17DF0775
:1035C000E8F54A815B819E0141155105B1F7E9019A
:1035D000FB83EA8349915991C40FD51FEC17FD076E
:1035E00061F4808191810296840F951FE90199838E
:1035F0008883828193819B838A83F0E0E0E0129646
:103600008D919C9113970097B9F52D913C9111974D
:10361000CD010296820F931F2091FD033091FE038E
:103620002817390739F6309751F510920004109297
:10363000FF03B093FE03A093FD03BCCFD383C283EB
:1036400040815181840F951FC817D90761F44E5FDF
:103650005F4F88819981480F591F518340838A8128
:103660009B81938382832115310509F0B0CFF093BC
:103670000004E093FF039ECFFD01DC01C0CF138265
:103680001282D7CFB0E0A0E0E8E4FBE10C9452183E
:103690008C01009751F4CB010E941D1A8C01C801C6
:1036A000CDB7DEB7E0E10C946E18FC01E60FF71F12
:1036B0009C0122503109E217F30708F49DC0D9019B
:1036C000CD91DC911197C617D70798F0C530D10579
:1036D00030F3CE0104978617970708F3C61BD70B64
:1036E0002297C193D1936D937C93CF010E94B91A15
:1036F000D6CF5B01AC1ABD0A4C018C0E9D1EA09169
:10370000FF03B0910004512C412CF12CE12C1097B7
:1037100031F58091FD039091FE038815990509F01C
:103720005CC04616570608F058C080910001909181
:103730000101009741F48DB79EB74091040150916B
:103740000501841B950BE817F90708F055C0F093A5
:10375000FE03E093FD03F90171836083A0CF8D9197
:103760009C91119712966C90129713967C901397D8
:10377000A815B90559F56C0142E0C40ED11CCA1454
:10378000DB0420F1AC014A195B09DA0112961597A6
:1037900080F06282738251834083D9016D937C9360
:1037A000E114F10471F0D7011396FC93EE93129794
:1037B00076CF22968C0F9D1FF90191838083F301B0
:1037C000EFCFF0930004E093FF0369CF481659064A
:1037D00008F42C017D01D3019ACFCB010E941D1A60
:1037E0007C01009749F0AE01B8010E94041CC80199
:1037F0000E94B91A870153CF10E000E050CF81E05A
:1038000090E0F8940C94141CFB01DC0102C00190C0
:103810000D9241505040D8F70895FB01DC01019012
:103820000D920020E1F7089510E0CFEDD0E004C044
:10383000FE010E94FB192196C03ED107C9F7F894FA
:02384000FFCFB8
:1038420000000104800000000000EA024A02770240
:103852003703A80286029A0200000000EB064A0221
:103862008107EA0647075F07D20600000000BF068D
:10387200B406590636062A0A2A0A32062E06B80560
:10388200A0052A0A3A0500000000BF06B406590640
:1038920036069904760432062E06B805A005430BB7
:1038A2003A0500000000D7084A02810780070D0A86
:1038B200006E616E00696E66006F7666002C0041D4
:1038C20043434944454E54204445544543544900DA
:1038D2002D4F4E20414E4420414E414C59534953A5
:1038E20000414C434F484F4C2044455445435445B6
:1038F2004400434152205455524E4544204F4646BF
:10390200004750524D430047504747410041542B16
:10391200434D47463D310D004C61743D20004C6FD4
:103922006E3D20004154202B20434D4753203D2023
:10393200222B393137373935383635343632220091
:103942004C61746974756465203D2000204C6F6E73
:10395200676974756465203D200031357A006874AA
:103962007470733A2F2F7777772E676F6F676C6556
:103972002E636F6D2F6D6170732F4000526561640D
:10398200204448543131206661696C65642C20659D
:0E39920072723D00202A432C200020480000C5
:00000001FF
